:02000002D0002C
:1040000000400D0054620D00000006000C00050188
:084010000401E80500000000B6
:04401800345B0D0008
:10401C0009480A49884208B505D0094A824202D0AB
:10402C00121A01F03DFD0748074A0021121A01F04F
:10403C0042FD014808BD00BF24DD0320C4610D0012
:10404C008CDD03208CDD0320F0E7032070B501F03C
:10405C004FFA074C074BE41AA40800251E46A5424C
:10406C0004D056F8253098470135F8E770BD00BFED
:10407C00C0610D007C610D0000F034BB08B500F090
:10408C0027FBBDE8084001F0F5B900F0A3BE00F035
:10409C00A1BE0078B0FA80F040097047012303708C
:1040AC007047000070B500F007FA104B1A68B0F8B2
:1040BC00013016214B43C3F5856318320233134488
:1040CC0043F6FF759C8AC4F30E069E82C4F30D035F
:1040DC00AB4205D04B43C3F5856302331344F1E780
:1040EC00037823F00803037070BD00BFF4E30320D2
:1040FC00F8B507460C46154600F0DEF9037803F0D8
:10410C000703042B01D00020F8BD384600F0D4F989
:10411C0003785906F7D5384600F0CEF91B4B1968D1
:10412C00B0F8013016225343C3F5856318310233BE
:10413C000B44002743F6FF7C10460A26B4FBF6F628
:10414C001FFA87FE764502D87645DCD10DE09A8AB7
:10415C00C2F30D02624507F10107F5D000FB02F333
:10416C00C3F5856302330B44EAE70A21B4FBF1F291
:10417C0001FB1244A4B233F8142093B21204C2D53A
:10418C00C3F30E032B800120F8BD00BFF4E3032022
:10419C0070B500F091F9154B1A68B0F80130162182
:1041AC004B43C3F58563183202331344002043F6A6
:1041BC00FF75002433F91460002E06DB9A8A6FEA2F
:1041CC0092326FEA82329A8270BD013401300A2C2D
:1041DC0080B2EFD19B8AC3F30D03AB4205D04B43A6
:1041EC00C3F5856302331344E3E770BDF4E30320A6
:1041FC002DE9F04F89B015468346029100F05CF929
:10420C00874EB0F80130346816221FB213FB02F34C
:10421C004FF0FF38E31A03F24244C246CDF8048053
:10422C00434603924FF0000934F8192090B212045F
:10423C0006D4002B17DA0FFA89F301933B4612E0F0
:10424C00C0F30E00059300F037F90490029800F0CB
:10425C0033F9049A0146104600F0E4F8059B10B9B6
:10426C000FFA89F8BA4609F10109B9F1050FDBD14A
:10427C00BAF1000F5DDAA78A43F6FF71C7F30D029E
:10428C008A4207D017463468039A07FB124404F29B
:10429C004244C7E72846039300F00EF90278039BCB
:1042AC0012F0070F43D0002B1BDB162213FB02F37B
:1042BC00C3F585633268019902331A4402EB41025B
:1042CC0002996FEA41416FEA5141118332681344FC
:1042DC00019A6FEA454503EB42036FEA55455D844D
:1042EC0025E00DF11E0000F0F1F8002800F094809C
:1042FC00A28ABDF81E3002F44041C3F30D020A43FA
:10430C00A2823268162101FB1323029A6FEA424201
:10431C006FEA5242A3F84224BDF81E2033686FEABC
:10432C00454501FB12336FEA5545A3F84C54012067
:10433C0072E0284600F0C0F8027802F0070202F0A2
:10434C00FF00162308F104017AB11AFB03FACAF52F
:10435C00856A33680AF1020A9A440AEB41016FEA52
:10436C0045456FEA55454D83E1E71AFB03FACAF55B
:10437C00856A33680AF1020A534403EB480888F84B
:10438C00182088F8192033689A440AEB41018A7680
:10439C00CA7634F91030002BC9DB01300528F8D16E
:1043AC00584600F089F8B0F801309F420FD1A38A2B
:1043BC0043F6FF72C3F30D039342B8D0584600F096
:1043CC007BF8A38AC3F30D03A0F8013020E0584614
:1043DC0000F072F8B0F80130356816225343C3F57B
:1043EC008563183502332B441046998AC1F30D02AC
:1043FC00974206D000FB02F3C3F5856302332B44CE
:10440C00F3E7A28A01F44041C2F30D0211439982F1
:10441C000023237563758AE709B0BDE8F08F00BFF0
:10442C00F4E3032002780B7812F0070205D113F0A5
:10443C00070318BF01235842704713F0070333D00A
:10444C00012A0BD1012B31D1B0F90120B1F9013086
:10445C009A422DDBCCBF0120002010E0022A05D0AF
:10446C00022B03D0032A0CD1032B21D1B0F801204D
:10447C00B1F801309A421BD38CBF0120002040B20E
:10448C007047042A01D1042BEFE7062A10D1062B22
:10449C000ED1D0F80130D1F80100834208D3834209
:1044AC0094BF00200120704701207047022BDCE7ED
:1044BC004FF0FF3070470000034B1B6800EB80008F
:1044CC0018331844704700BFF4E303202DE9F04380
:1044DC002E490F687E6907F58B639B1B1BB2162256
:1044EC0007F24245B3FBF2F300240FFA83FE6FF0A0
:1044FC00150C22B2724525DAB5F914900CFB04F2B6
:10450C00B9F1000F02F22A4204F10108A5F11605D7
:10451C0016DB04800B68183313444FF0FF321A7506
:10452C005A750022114603EB420003F812100132B7
:10453C00052A41708172C172F5D10120BDE8F0836A
:10454C004446D6E73C69A6F11602A2421BD303806F
:10455C000B685869A0F116025A614FF0FF3300F84E
:10456C00023C00F8013C0023194600EB43020133E6
:10457C00052B02F8161C02F8151C02F80C1C02F88C
:10458C000B1CF2D1D9E70020BDE8F083F4E3032043
:10459C0008B500F0070343F0080304280B7006D19C
:1045AC00481CFFF793FF003018BF012008BD0528F9
:1045BC0004BFFF238B70012008BD00002DE9F041E2
:1045CC00204C27683D6907F1180ECEEB05021C2321
:1045DC00A44692B20526B2FBF6F6B34220D203EB08
:1045EC0083040EEB04081EF8042012F0080F05D10A
:1045FC000B80DCF80010183121441BE003280CD18F
:10460C0002F00702032A08D10C88B8F80120944262
:10461C0003D10B800120BDE8F08101339BB2DCE7B4
:10462C006B1D7D69AB4209D80E80DCF8003019692E
:10463C004A1D1A61BDE8F041FFF7AABF0020BDE892
:10464C00F08100BFF4E3032007B50A4B1B680DF1A2
:10465C00060201219889FFF74BFDBDF80600FFF714
:10466C002BFFB0F8010000F083FF00F019F903B044
:10467C005DF804FBF4E3032013B5114C236898890F
:10468C00FFF786FD022803D0032000F07BF815E02D
:10469C0023680DF1060201219889FFF729FDBDF869
:1046AC000600FFF709FFB0F8014000F02DFE23468D
:1046BC00044A012100F0C7FF00F0F2F802B010BD6F
:1046CC00F4E30320485B0D000A46012100F0BBBF58
:1046DC0008B500F019FE0249FFF7F6FF08BD00BF50
:1046EC00675B0D0038B500F00FFE1449FFF7ECFFC7
:1046FC0000F036F8124B1B68012483F8994500F042
:10470C0003FE054601F005F80E4A034621462846ED
:10471C0000F099FF0C49022000F0BCF900F0F4FD08
:10472C000A49FFF7D1FF0A49032000F0B3F900F062
:10473C00EBFD0849FFF7C8FF38BD00BF765B0D00E5
:10474C00F4E303207C5B0D0085460D00955B0D00AA
:10475C0055460D00A15B0D0000F0A0BA00F09EBA0A
:10476C0008B500F0D1FD4FF4165100F0C1FD024B1D
:10477C00024A1A6008BD00BFF4E3032090DD032059
:10478C0000F08CBA044B1B68042283F8992583F83B
:10479C009A051B68184700BFF4E3032008B50D20E9
:1047AC00FFF7F0FF024B1B68B3F8580408BD00BFBD
:1047BC00F4E3032013B502A9044621F8020D0320EB
:1047CC00FFF7FCFE10B9FFF7E9FF07E0BDF80600A4
:1047DC00FFF772FEA0F80140BDF8060002B010BD54
:1047EC0013B504460DF106010520FFF7E7FE10B9DD
:1047FC00FFF7D4FF07E0BDF80600FFF75DFEC0F839
:10480C000140BDF8060002B010BD0000054B1A684F
:10481C00B2F9A035181A00F5347002EB400080880C
:10482C00704700BFF4E30320064B1A68B2F9A035B9
:10483C00591C02D10220FFF7A5BF013BA2F8A035FD
:10484C00704700BFF4E30320084B1A68B2F9A03597
:10485C0001339BB25F2B02D90220FFF793BFA2F862
:10486C00A03502EB4303A3F8A4057047F4E303203F
:10487C0038B50D46FFF7B4FF04462DB1FFF71CFE0B
:10488C00037843F0400303702046BDE83840FFF73F
:10489C00DBBF08B5FFF78EFFBDE80840FFF7D4BFBC
:1048AC0038B5284C2568B5F9A03501339BB2022BDD
:1048BC0001D8022034E0B5F9A225A5F8A02513B241
:1048CC0003F5347305EB43039888FFF7F5FDB0F956
:1048DC000130A5F8A235FFF7A7FF23689889FFF7E9
:1048EC00EBFD037823F01003037023689889FFF71E
:1048FC00D9FB00202168FFF789FF8881FFF794FF1F
:10490C002368B3F9A0350133D3D00020FFF77EFF25
:10491C00FFF7D2FD037803F00703012B04D0062028
:10492C00BDE83840FFF72EBF0020FFF76FFF24686B
:10493C00FFF7C2FDB0F901306381BDE83840FFF7E5
:10494C0073BF00BFF4E3032070B52F4C00F0DCFC08
:10495C002E49FFF7B9FE2368B3F9A03501339BB29A
:10496C00012B01D8022045E000F0CEFC2849FFF7CE
:10497C00ABFE0120FFF74AFF054600F0C5FC2549B8
:10498C00FFF7A2FE0020FFF741FF064600F0BCFC3B
:10499C002149FFF799FE2846FFF78EFD037803F0B7
:1049AC000703032B01D0062024E000F0ADFC1B49CB
:1049BC00FFF78AFEFFF738FF00F0A6FC1849FFF757
:1049CC0083FEFFF731FF00F09FFC1649FFF77CFEDA
:1049DC00236893F89935042B15D000F095FC1249F7
:1049EC00FFF772FE236832462946D889FFF700FC90
:1049FC0020B90D20BDE87040FFF7C4BE00F084FC68
:104A0C000A49FFF761FE70BDF4E30320E35B0D0080
:104A1C00EE5B0D00F95B0D00045C0D000F5C0D00EE
:104A2C001A5C0D00255C0D00305C0D003B5C0D002C
:104A3C0038B50C46054600F067FC1149FFF744FEFB
:104A4C002846FFF726FF00F05FFC0E49FFF73CFEFF
:104A5C002046FFF7F9FE00F057FC0B49FFF734FE38
:104A6C00FFF772FF00F050FC0849FFF72DFE084BD2
:104A7C001B6893F89905043818BF012038BD00BF96
:104A8C00465C0D004F5C0D00585C0D00615C0D0028
:104A9C00F4E3032038B50C46054600F035FC1B4901
:104AAC00FFF712FE00212046FFF7E2FE00F02CFC7F
:104ABC001749FFF709FE174B1B6893F89935042B20
:104ACC0021D000F021FC1449FFF7FEFD0020FFF778
:104ADC009DFE044600F018FC1049FFF7F5FDFFF7AA
:104AEC00A3FE00F011FC0E49FFF7EEFD002D03DBD9
:104AFC002146A8B2FFF79CFF00F006FC0949FFF71E
:104B0C00E3FD204638BD002038BD00BF6A5C0D00B7
:104B1C00715C0D00F4E30320785C0D007F5C0D00EC
:104B2C00865C0D008D5C0D0000F0B8B808B5024B2A
:104B3C001B681B68019308BD4C02030008B5024BAF
:104B4C001B685B68019308BD4C02030008B5024B5F
:104B5C001B681B69019308BD4C02030008B5024B8E
:104B6C001B685B69019308BD4C02030008B5024B3E
:104B7C001B689B69019308BD4C02030008B5024BEE
:104B8C001B68DB69019308BD4C02030008B5024B9E
:104B9C001B681B6A019308BD4C02030008B5024B4D
:104BAC001B681B68019308BD3C02030008B5024B4F
:104BBC001B68DB68019308BD3C02030008B5024B7F
:104BCC001B681B69019308BD3C02030008B5024B2E
:104BDC001B685B69019308BD3C02030008B5024BDE
:104BEC001B689B69019308BD3C02030008B5024B8E
:104BFC001B68DB69019308BD3C02030008B5024B3E
:104C0C001B689B6A019308BD3C02030008B5024B6C
:104C1C001B685B69019308BD6402030008B5024B75
:104C2C001B689B68019308BD4802030008B5024B42
:104C3C001B681B69019308BD4802030008B5024BB1
:104C4C001B685B69019308BD4802030008B5024B61
:104C5C001B685B6C019308BD4802030008B5024B4E
:104C6C001B689B6C019308BD4802030008B5024BFE
:104C7C001B685B6D019308BD3402030008B5024B41
:104C8C001B685B68019308BD1802030008B5024B52
:104C9C001B685B69019308BD1802030008B5024B41
:104CAC001B681B68019308BD2C02030008B5024B5E
:104CBC001B689B68019308BD6802030008B5024B92
:104CCC001B68DB68019308BD6802030008B5024B42
:104CDC001B68DB6B019308BD4402030008B5024B53
:104CEC001B685B68019308BD4002030008B5024BCA
:104CFC001B689B68019308BD4002030008B5024B7A
:104D0C001B68DB68019308BD4002030008B5024B29
:104D1C001B681B69019308BD4002030008B5024BD8
:104D2C001B685B69019308BD4002030008B5024B88
:104D3C001B689B69019308BD4002030008B5024B38
:104D4C001B68DB69019308BD4002030008B5024BE8
:104D5C001B681B6A019308BD4002030008B5024B97
:104D6C001B681B6B019308BD4002030008B5024B86
:104D7C001B685B6B019308BD4002030008B5024B36
:104D8C001B685B68019308BD2002030008B5024B49
:104D9C001B685B69019308BD2002030008B5034B37
:104DAC001B68D3F88830019308BD00002002030073
:104DBC0008B5034B1B68D3F89430019308BD000071
:104DCC002002030008B5024B1B681B68019308BD49
:104DDC001C02030008B5024B1B685B68019308BDFD
:104DEC001C02030008B5024B1B685B6A019308BDEB
:104DFC001C02030000231A464068FFF76FBF002215
:104E0C0002214068FFF77ABF002211464068FFF785
:104E1C006DBF002211464068FFF778BF00231A4689
:104E2C0019464068FFF77ABF00231A4619464068B6
:104E3C00FFF77CBF002281F001014068FFF77EBFC5
:104E4C0000224068FFF78ABF002211464068FFF736
:104E5C008DBF002211464068FFF778BF2DE9F04363
:104E6C00002495B016460D46074600F0ADFA2146D3
:104E7C0020220CA8009400F01EFE40230C93214627
:104E8C006B460CAA3046FFF719FF0446002844D1A4
:104E9C00024601216868FFF739FF0221804622464D
:104EAC006868FFF733FF009E81462146002E34D000
:104EBC00002932D17368022B02D00A2B09D02AE0C8
:104ECC00B8F1000F27D071693846043100F0A9FA07
:104EDC0020E0B9F1000F1ED07469112201A800F076
:104EEC00EAFD06238DF8143001AD04F108031834E3
:104EFC00186859682A4603C20833A3421546F7D1ED
:104F0C0001A906A807AD00F06DFA0FCD3C1D0FC42A
:104F1C002B6823700121F669C8E70098FFF7C6FEDD
:104F2C00384615B0BDE8F083024B034A1A600022E4
:104F3C005A607047F8E30320D85E0D00002211463A
:104F4C004068FFF7E3BE002211464068FFF7FEBE43
:104F5C00002211464068FFF709BF00224068FFF7A6
:104F6C00FDBE002281F001014068FFF7E7BE00237F
:104F7C001A4619464068FFF7D9BE00231A4619464F
:104F8C004068FFF7CBBE002211464068FFF7AEBE6B
:104F9C00002202214068FFF7B1BE00231A46406888
:104FAC00FFF79CBE024B04225A60024A1A607047FB
:104FBC0000E403200C5F0D00002211464068FFF74F
:104FCC00C5BE002211464068FFF7D0BE00224068E3
:104FDC00FFF7C4BE002281F001014068FFF7AEBEAE
:104FEC0000231A4601214068FFF7A0BE00231A4691
:104FFC0019464068FFF792BE002211464068FFF741
:10500C0085BE002211464068FFF770BE00220221C7
:10501C004068FFF773BE00231A464068FFF75EBE78
:10502C0038B5054688B104684CB1A3681BB103229E
:10503C002146204698471021204600F0D8FB2846F0
:10504C001421BDE8384000F0D2BB38BD10B1036864
:10505C005B681847704710B503680446BBB15868C5
:10506C00FFF7DCFD78B923685A7C12B95868FFF752
:10507C00DDFD23685868FFF7E1FD206800232360FD
:10508C0028B1FFF7CDFF206808B1FFF7C9FF204614
:10509C0010BD38B50446D0F8C40108B1FEF7F7FFCF
:1050AC00D4F8C00108B1FFF7D9FDD4F8BC5135B123
:1050BC002846FFF7D0FF0421284600F098FB206813
:1050CC0008B1FFF7C3FF204638BD000010B5044BF4
:1050DC00044640F8083BFFF7DCFF204610BD00BF3C
:1050EC00405F0D0038B50E4C0E4B2360002502239B
:1050FC0004F5E4706360A560C4F8C451C4F8C851E9
:10510C00FFF7A4FD084BC4F8CC5184F8D0512360B0
:10511C002046064A0649BDE8384000F063BB00BF94
:10512C0008E40320D85E0D00405F0D008CDD0320E9
:10513C00D9500D0070474174704708B5007CFFF7DB
:10514C005DFD20EAE07008BD08B5007CFFF736FD78
:10515C0020EAE07008BD08B5007CFFF73FFD30EA9F
:10516C00200028BF4FF0FF3008BD08B5007CFFF7CA
:10517C002DFD30EA200028BF4FF0FF3008BD007C29
:10518C00FFF734BD10B51421044600F030FB204667
:10519C0010BD70B5457C04460E4625B9007CFFF762
:1051AC002DFD002805DD3146207CBDE87040FFF761
:1051BC00FDBC284670BD000010B5044608461146DB
:1051CC00002262604FF47A72A260054A22600122CA
:1051DC00207462741A46FFF7E1FC204610BD00BF34
:1051EC00745F0D0038B50C4D296811F0010411D114
:1051FC002846FEF74EFF68B1084A094B094821467C
:10520C00FFF7DAFF2846FEF749FF074A074905482A
:10521C0000F0E8FA034838BD74E6032078E6032072
:10522C00F0E50320DCE503208CDD032041510D006B
:10523C0010B58368044613B10322014698472046F3
:10524C0010BD41747047704708B50021007CFFF712
:10525C008DFC30EA200028BF4FF0FF3008BD08B5A8
:10526C000121007CFFF782FC30EA200028BF4FF0C0
:10527C00FF3008BD08B5007CFFF770FC20EAE07039
:10528C0008BD08B5007CFFF761FC20EAE07008BDA2
:10529C00007CFFF77BBC10B51421044600F0A7FA84
:1052AC00204610BD38B50446007C0D46FFF756FC71
:1052BC00002801DC607C28B12946207CFFF75EFCCD
:1052CC0020EAE07038BD000010B50446002363608E
:1052DC004FF47A73A360054B2360012308462174B5
:1052EC0063741146FFF722FC204610BDA45F0D002D
:1052FC000022007CFFF722BC10B5142204460021CA
:10530C0000F0D9FB204610BD30B50E4D87B001A87A
:10531C00FFF7F2FF296811F0010410D12846FEF7BF
:10532C00B8FE60B101AA21460748FFF7CDFF284619
:10533C00FEF7B4FE054A0649034800F053FA02484A
:10534C0007B030BDFCE6032000E703208CDD032012
:10535C0053520D00704710B51821044600F047FA5F
:10536C00204610BDF0B5037D062B8DB00E4600F126
:10537C0004074FF0000402D000F1080518E00CAD52
:10538C00394605F8304D2F232A460A20FFF73EFCFC
:10539C00284600F0C1FB33680246DB6829463046DC
:1053AC0098470FE024B12E21304600F01DF904443B
:1053BC0015F8011D0A22304600F025F9BD420444BF
:1053CC00F0D120460DB0F0BD10B5054B04461122AE
:1053DC0040F8043B002100F06EFB204610BD00BFDE
:1053EC00D45F0D000346074A10B543F8042B01F1B6
:1053FC00100251F8044B43F8044B9142F9D10A784E
:10540C001A7010BDD45F0D0010B59DF8084044EA29
:10541C00032343EA024242EA01610423416003751B
:10542C0010BD37B50D788B784A78C978009129462C
:10543C00FFF7EAFF03B030BD08B50C4B33B1FFF7F3
:10544C0063FF03681B699847002809DC084B63B1AC
:10545C00FFF7C8FE03681B699847002803DC08BDEA
:10546C00AFF30080F2E7AFF3008008BD000000004E
:10547C000000000008B5FFF7DFFFFFF707FC014B4A
:10548C00186008BD4CE703200248034A0349121A6E
:10549C0000F006BB00F4032004F40320C0610D00EF
:1054AC0007B5002300931A466FF07701FFF780FCD5
:1054BC0003B05DF804FB000007B543880A2B08D045
:1054CC00502B09D1094B1B683BB103B05DF804EBC1
:1054DC001847FFF7E5FF06E0002300931A466FF02C
:1054EC007701FFF765FC03B05DF804FB14E70320BC
:1054FC0038B5104C104D2368AB42104B0CBF012239
:10550C0000221A7002D0FFF7BFFF2560FFF7B6FB31
:10551C00044600F0D9FA0A4B13B12046AFF30080D1
:10552C0000210748FFF7D2FB00210648BDE83840B0
:10553C00FFF734BC00F403201E1C279A18E7032045
:10554C0000000000C5540D0010B50446FFF770FEB6
:10555C00204610BD0348044A04490023836000F030
:10556C0041B900BF1CE703208CDD032055550D000D
:10557C000021FFF70BBC0000024B1A68024B1A60AB
:10558C00704700BF24DD03202CE70320014B024AA7
:10559C001A60704730E703207A600D00F8B50646B4
:1055AC000D468F180024BD420CD0336815F8011B32
:1055BC009B6830469847002801DB0444F3E7002C35
:1055CC0008BF04462046F8BD70B505460C46084693
:1055DC0049B100F0A1FA2B68024621462846DB6847
:1055EC00BDE87040184770BD03689B68184738B514
:1055FC000D210546FFF7F8FF0A2104462846FFF760
:10560C00F3FF204438BD30B58BB00B4600218DF82C
:10561C002410012A98BF0A220DF12304B3FBF2F5E2
:10562C0005FB123303F0FF03092B94BF30333733E0
:10563C00DBB2214604F801392B46002DEED1FFF7E1
:10564C00C3FF0BB030BD0CB42DE9F04387B000AFF5
:10565C0007F13804054654F8049B3C600E4623467B
:10566C004A461421381DFFF7BDFB132805D8391DF8
:10567C002846FFF7A9FF044613E000F1080323F0C6
:10568C000703E846ADEB030D411C23464A4668462A
:10569C003C60FFF7A7FB69462846FFF795FF0446D9
:1056AC00C5461EB12846FFF7A2FF044420461C370E
:1056BC00BD46BDE8F04302B0704710B50446006823
:1056CC0008B1FFF7CBFA204610BD000010B5064C10
:1056DC00002320462360FFF7B9FA2046034A044909
:1056EC00BDE8104000F07EB834E703208CDD0320C9
:1056FC00C7560D0010B50446006818B1FFF76AFBD9
:10570C000023236010BD10B50446FFF7F3FF2046BD
:10571C0010BD10B5202488B022460021684600F048
:10572C00CAF900216846ADF80040FFF79FFA0198CE
:10573C0008B010BD10B5094C00204FF6FF73206067
:10574C00A080A07120816381FFF718FB2046044ADA
:10575C000449BDE8104000F045B800BF38E703200D
:10576C008CDD032013570D00002211464068FFF713
:10577C00EDBA002211464068FFF7F8BA00224068E3
:10578C00FFF7ECBA002281F001014068FFF7D6BAAE
:10579C0000231A4619464068FFF7C8BA00231A4678
:1057AC0019464068FFF7BABA002211464068FFF765
:1057BC00ADBA002211464068FFF798BA00220221C8
:1057CC004068FFF79BBA00231A464068FFF786BA79
:1057DC00024B03225A60024A1A60704744E70320C6
:1057EC00F0600D000B460146184600F04BB9FEF771
:1057FC004CBC0000184B1A68D1075CBF01221A6020
:10580C00164B1A68D2075CBF01221A60144B1A6837
:10581C00D0075CBF01221A60124B1A68D1075CBF1B
:10582C0001221A60104B1A68D2075CBF01221A6061
:10583C000E4B1A68D0075CBF01221A600C4B1A6819
:10584C00D1075CBF01221A600A4B1A68D2075CBFF1
:10585C0001221A60704700BF6CE7032068E7032041
:10586C0064E7032060E703205CE7032058E703208C
:10587C0054E7032050E70320244B1A68D0075CBF81
:10588C0001221A60224B1A68D1075CBF01221A60F0
:10589C00204B1A68D2075CBF01221A601E4B1A6893
:1058AC00D0075CBF01221A601C4B1A68D1075CBF81
:1058BC0001221A601A4B1A68D2075CBF01221A60C7
:1058CC00184B1A68D0075CBF01221A60164B1A6875
:1058DC00D1075CBF01221A60144B1A68D2075CBF57
:1058EC0001221A60124B1A68D0075CBF01221A60A1
:1058FC00104B1A68D1075CBF01221A600E4B1A6854
:10590C00D2075CBF01221A60704700BF9CE70320DE
:10591C0098E7032094E7032090E703208CE703200B
:10592C0088E7032084E7032080E703207CE703203B
:10593C0078E7032074E7032070E70320244B1A68F0
:10594C00D0075CBF01221A60224B1A68D1075CBFDA
:10595C0001221A60204B1A68D2075CBF01221A6020
:10596C001E4B1A68D0075CBF01221A601C4B1A68C8
:10597C00D1075CBF01221A601A4B1A68D2075CBFB0
:10598C0001221A60184B1A68D0075CBF01221A60FA
:10599C00164B1A68D1075CBF01221A60144B1A68A7
:1059AC00D2075CBF01221A60124B1A68D0075CBF89
:1059BC0001221A60104B1A68D1075CBF01221A60D1
:1059CC000E4B1A68D2075CBF01221A60704700BFE9
:1059DC00CCE70320C8E70320C4E70320C0E703207B
:1059EC00BCE70320B8E70320B4E70320B0E70320AB
:1059FC00ACE70320A8E70320A4E70320A0E70320DB
:105A0C00184B1A68D1075CBF01221A60164B1A6832
:105A1C00D2075CBF01221A60144B1A68D0075CBF16
:105A2C0001221A60124B1A68D1075CBF01221A605E
:105A3C00104B1A68D2075CBF01221A600E4B1A6811
:105A4C00D0075CBF01221A600C4B1A68D1075CBFEF
:105A5C0001221A600A4B1A68D2075CBF01221A6035
:105A6C00704700BFECE70320E8E70320E4E70320DE
:105A7C00E0E70320DCE70320D8E70320D4E703208A
:105A8C00D0E7032010B5054C13462CB10A4601464D
:105A9C000220AFF3008010BD204610BD00000000B6
:105AAC0010B5431E0A44914204D011F8014B03F87F
:105ABC00014FF8E710BD02440346934202D003F8AD
:105ACC00011BFAE77047000038B5124B1C68A36B3A
:105ADC000546D3B91820FFF775F943F20E33A063CE
:105AEC0003804AF6CD33438041F2342383804EF257
:105AFC006D63C3804DF6EC630381052343810B2357
:105B0C00838101220023C0E90423A36B00221D61C1
:105B1C005A6138BD88DD0320034613F8012B002A97
:105B2C00FBD1181A013870471D400D0059400D006B
:105B3C0085400D0089400D00000000004461742078
:105B4C006E756D626572202564004242564D20537D
:105B5C00544152544544203A44200044455649434C
:105B6C0045204352415348454400537461727400BC
:105B7C005265676973746572696E672066756E63CA
:105B8C0074696F6E732025640046697273742064A7
:105B9C006F6E652000494E495420444F4E45004ECF
:105BAC002F4100564D3A0A0973746174653A2025E9
:105BBC00730A0970633A2025640A09696E7374725A
:105BCC003A2025730A096572726F722073746174BE
:105BDC00653A2025730A007465737420342E342EB4
:105BEC0031007465737420342E342E320074657356
:105BFC007420342E342E33007465737420342E3498
:105C0C002E34007465737420342E342E3500746574
:105C1C00737420342E342E36007465737420342E35
:105C2C00342E37007465737420342E342E3800747F
:105C3C0065737420342E342E3900546573742034FB
:105C4C002E31005465737420342E320054657374F5
:105C5C0020342E33005465737420342E3400546574
:105C6C007374203000546573742031005465737460
:105C7C0020320054657374203300546573742034DF
:105C8C0000546573742035004E4F500050555348E6
:105C9C004E494C0044555000504F50005245543022
:105CAC0000524554310041444400535542004D5577
:105CBC004C00444956004D4F4400504F5700554E30
:105CCC004D00414E44004E4F54004E455100475438
:105CDC0000475445004C54004C544500474C4F4130
:105CEC0044004753544F52450050555348540054A8
:105CFC0050555400544745540043414C4C430043C9
:105D0C00414C4C530050555348460050555348494C
:105D1C000050555348530050555348434E0050556E
:105D2C005348434300505553484C004C4C4F41444E
:105D3C00004C53544F5245004A554D50004A554D56
:105D4C00505A004A554D504E5A0042425A564D5FD9
:105D5C004552524F525F4E4F4E450042425A564D9D
:105D6C005F4552524F525F494E5354520042425A71
:105D7C00564D5F4552524F525F535441434B004274
:105D8C00425A564D5F4552524F525F4C4E554D0044
:105D9C0042425A564D5F4552524F525F5043004259
:105DAC00425A564D5F4552524F525F464C495354DE
:105DBC000042425A564D5F4552524F525F54595011
:105DCC00450042425A564D5F4552524F525F4F5515
:105DDC00544F4652414E47450042425A564D5F453C
:105DEC0052524F525F4E4F54494D504C0042425A02
:105DFC00564D5F4552524F525F5245540042425AE3
:105E0C00564D5F4552524F525F535452494E4700C4
:105E1C0042425A564D5F4552524F525F5357415270
:105E2C004D0042425A564D5F4552524F525F5653A7
:105E3C005449470042425A564D5F4552524F525FA9
:105E4C004D454D0042425A564D5F4552524F525F9E
:105E5C004D4154480042425A564D5F5354415445AB
:105E6C005F4E4F434F44450042425A564D5F535488
:105E7C004154455F52454144590042425A564D5F88
:105E8C0053544154455F53544F5050454400424283
:105E9C005A564D5F53544154455F444F4E45004252
:105EAC00425A564D5F53544154455F4552524F52DE
:105EBC000042425A564D5F53544154455F434F552F
:105ECC004E5400000000000000000000014E0D00C8
:105EDC000B4E0D00154E0D001F4E0D00294E0D00E2
:105EEC00354E0D00414E0D004D4E0D00554E0D0022
:105EFC005F4E0D00694E0D00000000000000000018
:105F0C00A74F0D009D4F0D00934F0D00494F0D00F5
:105F1C00874F0D007B4F0D006F4F0D00674F0D002D
:105F2C005D4F0D00534F0D00694E0D000000000039
:105F3C000000000023500D0019500D000F500D00F3
:105F4C0005500D00F94F0D00ED4F0D00E14F0D0008
:105F5C00D94F0D00CF4F0D00C54F0D00694E0D00F0
:105F6C00000000000000000041510D0091510D0097
:105F7C009F510D00A9550D0055510D0077510D0085
:105F8C0063510D008B510D0043510D0047510D0015
:105F9C00000000000000000053520D00A3520D0041
:105FAC00B1520D00A9550D008F520D0055520D0028
:105FBC006B520D009D520D0081520D004F520D0081
:105FCC00000000000000000071530D0061530D0033
:105FDC0063530D00252B3033643A25303275002580
:105FEC00592D256D2D25645425483A254D3A2553B8
:105FFC00257A0061736374696D6500626175640074
:10600C0053657269616C0053657269616C3100741F
:10601C0079706500706172616D00636D6400696414
:10602C0000686E64007374726D0066696C74006C49
:10603C00766C0061646448616E646C6572007265B4
:10604C006D6F766548616E646C657200656E756D1A
:10605C0048616E646C657273004A534F4E53747290
:10606C0065616D4C6F6748616E646C657200617040
:10607C007000253031307520005D20002C20002868
:10608C00293A2000205B00636F6465203D200025C9
:10609C00690064657461696C73203D20000D0A0011
:1060AC0066006C6E00666E00636F646500646574F8
:1060BC0061696C006E6F6E65007472616365006976
:1060CC006E666F007761726E006572726F7200702F
:1060DC00616E696300616C6C0000000000000000E0
:1060EC0000000000D3570D00C9570D00BF570D001D
:1060FC00B5570D00A9570D009D570D0091570D0078
:10610C0089570D007F570D0075570D00694E0D0016
:10611C000000000000000000000000000000000073
:10612C000000000000000000000000000000000063
:10613C000000000000000000000000000000000053
:10614C000000000000000000000000000000000043
:10615C000000000000000000000000000000000033
:10616C000000000000000000000000000000000023
:10617C0065470D0069470D008D470D00354B0D002F
:10618C00354F0D00B14F0D00F1500D0061550D0054
:10619C0085550D0099550D00D9560D0041570D0030
:1061AC00DD570D0001580D0085580D0049590D00A3
:0461BC000D5A0D006B
:0461C00000000000DB
:1061C400FF5F0D00000000001C610D003C610D002C
:1061D4005C610D00000000000000000000000000F1
:1061E400000000002F5D0D00000000000000000012
:1061F400000000000000000000000000000000009B
:10620400000000000000000000000000000000008A
:10621400000000000000000000000000000000007A
:086224000000000028DD03204A
:10622C00FFFFFFFF00000102030405060708090A2F
:10623C000B0C0D0E0F101112131415161718191A2A
:08624C001B1C1D1E1F20280071
:046254007856341232
:04000003D000401CCD
:00000001FF
