:02000002D0002C
:1040000000400D0094950D00000006000C00050115
:084010000401E80500000000B6
:04401800B08B0D005C
:10401C0009480A49884208B505D0094A824202D0AB
:10402C00121A04F07BFD0748074A0021121A04F00B
:10403C0080FD014808BD00BF10DC032004940D0076
:10404C0078DD032078DD0320F0E7032070B503F062
:10405C00D7FE074C074BE41AA40800251E46A542C0
:10406C0004D056F8253098470135F8E770BD00BFED
:10407C00FC930D00B0930D0000F018B808B500F0DB
:10408C0021F8BDE8084003F07DBE03F02BBB03F024
:10409C0029BB0078B0FA80F0400970470123037007
:1040AC0070470A46012103F052BF000008B503F027
:1040BC00B3FD0349FFF7F5FFBDE8084000F052B827
:1040CC00D28B0D0008B5002000F066F803F0A4FDBB
:1040DC000149FFF7E6FF08BD158C0D0003F06EBA21
:1040EC0003F06CBA064A10B5064C002310449AB281
:1040FC00914203D9C25C1A550133F8E7014810BD4F
:10410C002E8C0D00E6E3032010B5044603F084FD6D
:10411C002346034A0121BDE8104003F018BF00BF3D
:10412C00248C0D0013B500F024FD002000F0B6F92E
:10413C0002AC24F8020D00F0BFF9094BBDF80610D3
:10414C00D889224602F000FB40B100F0B9FABDF864
:10415C00060000F041FA002001F050F902B010BD49
:10416C0087DD032010B503F057FD4FF4165103F013
:10417C0047FD054B054A1A60054906480B230122E9
:10418C00BDE8104002F048BCF4E3032087DD0320B7
:10419C007CDD0320EAE3032038B50546114C0120F1
:1041AC0001F07CF92E21104801F004F923680F4A24
:1041BC001A60A8472368012283F894250420FFF78E
:1041CC00B1FF00F083FF236893F89435042B07D0DC
:1041DC0000F0C6F80520FFF7A5FF00F085F8F2E720
:1041EC0038BD00BFF4E30320F1400D0015410D0074
:1041FC0003F0E4B90EB4002803B50ADD04AB019357
:10420C0003F00AFD019B039A012103F0A0FE00209C
:10421C0000E0012002B05DF804EB03B0704703F03E
:10422C00CDB90000F0B585B0074602F0DDF8114BB2
:10423C001968114B91F894454A6853F82460B1F809
:10424C0098553AB10121284690470C4B027853F807
:10425C00222000E00A4A0B4B0B4953F827300293FB
:10426C0001920095334622460220FFF7C3FF05B0AA
:10427C00F0BD00BFF4E30320B8DC032010DC032006
:10428C005C8C0D00D0DC0320608C0D00084400B267
:10429C007047401A00B27047484300B2704790FB19
:1042AC00F1F000B2704790FBF1F303FB110000B288
:1042BC0070470840704708437047B0FA80F04009D7
:1042CC007047003018BF012070470028D4BF002071
:1042DC0001207047C043C00F7047C00F70470028C3
:1042EC00CCBF00200120704770470000044B1B68B6
:1042FC00042283F8942583F895051B68184700BFA2
:10430C00F4E30320002908B508DB0123013909B2C5
:10431C004A1C01D04343F9E718B208BD012805D067
:10432C00431C03D00E20FFF7E1FF002008BD000066
:10433C0008B50D20FFF7DAFF024B1B68B3F85804E1
:10434C0008BD00BFF4E30320044B1868B0F99B15BB
:10435C00013189B200F29F5001F084BFF4E30320D5
:10436C0070B5154D2B6893F89435042B22D00B2483
:10437C002E46286800F2634002F078FBD0B9013C6D
:10438C0014F0FF0400D170BDFFF7DEFF336893F823
:10439C009435042B0ED003F03FF80378002BE8D0B3
:1043AC00022B04D9032BE4D102F0CEFDE1E702F09D
:1043BC00E5FBDEE770BD00BFF4E30320044B1B6894
:1043CC0058811B89834202D20420FFF78FBF7047AC
:1043DC00F4E3032013B504460DF10601012001F0AE
:1043EC00FBFE10B9FFF7A4FF07E0BDF8060001F0D3
:1043FC0071FEA0F80140BDF8060002B010BD13B567
:10440C0004460DF10601022001F0E6FE10B9FFF79B
:10441C008FFF07E0BDF8060001F05CFEA0F801403C
:10442C00BDF8060002B010BD13B502A9044621F870
:10443C00020D032001F0D0FE10B9FFF779FF07E061
:10444C00BDF8060001F046FEA0F80140BDF80600DC
:10445C0002B010BD07B504200DF1060101F0BCFE41
:10446C0010B9FFF765FF01E0BDF8060003B05DF879
:10447C0004FB13B504460DF10601052001F0ACFE5A
:10448C0010B9FFF755FF07E0BDF8060001F022FE5A
:10449C00C0F80140BDF8060002B010BD054B1A680B
:1044AC00B2F99B35181A00F5337002EB4000B0F8E6
:1044BC0007007047F4E30320064B1A68B2F99B35EA
:1044CC00591C02D10220FFF711BF013BA2F89B350A
:1044DC00704700BFF4E30320F8B50646114C0020EA
:1044EC00FFF7DCFF23680746988902F09BFE054620
:1044FC00AE4223680DD3B3F85814988902F0F2FD3C
:10450C000135ADB20028F3D10D20BDE8F840FFF71E
:10451C00EDBE3A463146988902F0A4FDBDE8F8405C
:10452C00FFF7CABFF4E3032038B5144C2368B3F982
:10453C009B350133054601D102201AE00020FFF71C
:10454C00ADFF01F0C7FD037803F00703012B0FD873
:10455C00B0F901300BB923685D8123685A891B8936
:10456C009A4201D9042004E0BDE83840FFF7A4BF0B
:10457C000620BDE83840FFF7B9BE00BFF4E30320C6
:10458C0038B5144C2368B3F99B350133054601D17A
:10459C0002201AE00020FFF781FF01F09BFD037859
:1045AC0003F00703012B0FD8B0F901300BB12368CE
:1045BC005D8123685A891B899A4201D9042004E041
:1045CC00BDE83840FFF778BF0620BDE83840FFF75C
:1045DC008DBE00BFF4E30320084B1A68B2F99B357B
:1045EC0001339BB25F2B02D90220FFF77FBEA2F8EA
:1045FC009B3502EB4303A3F89F057047F4E30320BC
:10460C0008B5FFF727FFBDE80840FFF7E5BF00003E
:10461C0007B50D4B1B6893F8582493F8591442EACC
:10462C00012102AA22F8021D0146988902F0CAFC57
:10463C0018B90320FFF75AFE03E0BDF80600FFF798
:10464C00CBFF03B05DF804FBF4E3032013B51B4B65
:10465C001B68B3F89B355E2B01D9022006E00DF1E7
:10466C000601062001F0B8FD18B90D20FFF73EFE3B
:10467C0021E0BDF8060001F02DFD04460020FFF7F7
:10468C000DFF01F027FD0368236003792371BDF84A
:10469C00060001F01FFD037843F008030370BDF81A
:1046AC00060001F017FD037823F010030370BDF82A
:1046BC000600FFF791FF02B010BD00BFF4E303202A
:1046CC00024B1B68B3F85804FFF786BFF4E30320D2
:1046DC0038B50D46FFF7CDFE04462DB101F0FAFCBE
:1046EC00037843F0400303702046BDE83840FFF7E1
:1046FC0073BF08B5FFF76EFEBDE80840FFF76CBF4F
:10470C00F8B51C4F3B68B3F99B3501339BB2012BB9
:10471C00064601D802201FE00020FFF7BFFE01F083
:10472C00D9FC05460120FFF7B9FE01F0D3FC044685
:10473C00FFF7C2FEFFF7C0FE3B6893F89435042BDD
:10474C0017D0237803F00703022B04D02B7803F047
:10475C000703022B04D10620BDE8F840FFF7C6BDC5
:10476C00B5F90110B4F90100B047BDE8F840FFF706
:10477C00C0BFF8BDF4E303200148FFF7C1BF00BF81
:10478C0099420D000148FFF7BBBF00BF9F420D00CF
:10479C000148FFF7B5BF00BFA5420D000148FFF768
:1047AC00AFBF00BFAB420D000148FFF7A9BF00BF70
:1047BC00B3420D000148FFF7A3BF00BF11430D002A
:1047CC0010B5134B1B68B3F99B35013301D1022093
:1047DC0010E00020FFF762FE01F07CFC0446002094
:1047EC00FFF75CFE01F076FC037803F00703012B66
:1047FC0004D00620BDE81040FFF778BDFFF75CFE43
:10480C00B4F90100404200B2BDE81040FFF771BF9F
:10481C00F4E30320F8B5214F3B68B3F99B35013322
:10482C009BB2012B044604D80220BDE8F840FFF7E8
:10483C005DBD0020FFF732FE01F04CFC0546012067
:10484C00FFF72CFE01F046FC0646FFF735FEFFF79E
:10485C0033FE3B6893F89435042B1DD0337803F06A
:10486C000703012B05D1B6F90100003018BF012058
:10487C0000E000202B7803F00703012B05D1B5F9DC
:10488C000110003118BF012100E00021A047BDE854
:10489C00F84000B2FFF72DBFF8BD00BFF4E30320D2
:1048AC000148FFF7B7BF00BFBF420D000148FFF73B
:1048BC00B1BF00BFC3420D0010B5114B1B68B3F95B
:1048CC009B35013301D1022016E00020FFF7E6FDF5
:1048DC0001F000FC0446FFF7EFFD237803F007031B
:1048EC00012B08D8B4F90100003018BF0120BDE835
:1048FC001040FFF7FEBE0620BDE81040FFF7F6BCE7
:10490C00F4E3032070B5144B1B68B3F99B350133EA
:10491C009BB2012B044604D80220BDE87040FFF77F
:10492C00E5BC0020FFF7BAFD01F0D4FB06460120E0
:10493C00FFF7B4FD01F0CEFB0546FFF7BDFDFFF719
:10494C00BBFD3146284601F0B3FAA047BDE87040E4
:10495C0000B2FFF7CEBE00BFF4E303200148FFF71F
:10496C00D1BF00BFC7420D000148FFF7CBBF00BF4E
:10497C00CF420D000148FFF7C5BF00BFD7420D0065
:10498C000148FFF7BFBF00BFE1420D000148FFF730
:10499C00B9BF00BFE7420D000148FFF7B3BF00BF2E
:1049AC00EB420D002DE9F347DFF8B481D8F8003065
:1049BC00B3F99B350133454601D102200AE00020B2
:1049CC00FFF76CFD01F086FB037803F00703012B66
:1049DC0003D00620FFF78AFCBEE00020FFF75EFD47
:1049EC0001F078FBB0F90170FFF766FDD8F80030E4
:1049FC00B3F99B350133BEB29BB29E423CB2DCDABA
:104A0C002046FFF74BFD01F065FB90F8009009F094
:104A1C000709B9F1050FDCD12046FFF73FFD01F086
:104A2C0059FB90F90030002B04460BDAD8F8003013
:104A3C0090F801A0B3F85C0402F0F4FB824501D3BA
:104A4C004846C7E72B6894F900201946002A31F82C
:104A5C000C8F02DAA078FF2801D1B3F85A0402F0C7
:104A6C0011FC08B90D20B5E72B68988901F032FBD1
:104A7C00037843F010030370ADF80670BDF8060020
:104A8C0070B1013800B2FFF709FD2B680146988917
:104A9C0002F028FBBDF80630013BADF80630EDE71F
:104AAC002A68B2F99B35013B9B1BA2F89B3594F904
:104ABC000030002B46DAA078FF2843D001F00AFB27
:104ACC0090F90030002B3DDAFFF7F6FC2B68244EF2
:104ADC00B3F90A00FFF70DFE2B6893F89435042BFD
:104AEC003AD04046FFF778FD336893F89425042AB2
:104AFC0032D0B3F99D05FFF7FCFD336893F894258C
:104B0C00042A29D0B3F99B25A3F89D2594F90020FC
:104B1C00002A0DDAB3F85C0461780DF1060202F09C
:104B2C0051FABDF8060001F0D5FAD0F8013001E0D9
:104B3C00D4F801302278520602D52A6853810BE052
:104B4C00984709E00020FFF7A9FC2B6802460021DA
:104B5C00988902F087FAB7E702B0BDE8F08700BF8A
:104B6C00F4E3032008B5FFF74AFCBDE80840FFF763
:104B7C0033BD08B5FFF758FCBDE80840FFF72CBD66
:104B8C0037B5044601A9052001F026FB18B90D2004
:104B9C00FFF7ACFB53E0BDF8040001F09BFA03787F
:104BAC0043F040030370BDF8040001F093FA03785E
:104BBC0063F07F0303700DF10601012001F00CFB83
:104BCC000028E4D0BDF8060001F084FAA0F80140FA
:104BDC001C4C1D492368BDF80620B3F85C0402F098
:104BEC008BFB23680546B3F85C0402F01BFB854283
:104BFC00BDF8061006D12368B3F85C0402F072FA13
:104C0C0038B9C4E7084601F065FA037823F00803C5
:104C1C000370BDF8040001F05DFA457023689C89AF
:104C2C004CB1BDF8040001F055FA811C204602F08D
:104C3C00B1FB0028ABD0BDF80400FFF7CDFC03B0EE
:104C4C0030BD00BFF4E30320BD5E0D002DE9F34140
:104C5C00764C2368B3F99B3501339BB2022B01D8F8
:104C6C0002206BE00020FFF719FCADF802000120D8
:104C7C00FFF714FC80460220FFF710FC074601F0FA
:104C8C0029FA037803F00703042B01D0062055E022
:104C9C00FFF712FCFFF710FCFFF70EFC236893F8EC
:104CAC009435042B00F0BF80BDF8020001F012FA1D
:104CBC00037803F00702052A054642D11B0640D5AE
:104CCC008078FF283DD001F005FA90F90030002BD8
:104CDC0037DB01A9062001F07FFA002839D0BDF896
:104CEC00040001F0F7F90646BDF8020001F0F2F9F4
:104CFC000368336003793371BDF8040001F0EAF9FD
:104D0C00037863F07F0303702B7813F0400F14BF0C
:104D1C00012006200DF1020101F05EFAC8B195F9EF
:104D2C000030002B26DA23686978B3F85C04AE787F
:104D3C000DF1060202F046F968B90520FFF7D6FA24
:104D4C0071E0BDF802204146384601F04BFD0028C9
:104D5C0069D10D20F2E7BDF8020001F0BBF9054660
:104D6C00BDF8060001F0B6F9D0F80130C5F80130F5
:104D7C00B6B20AE02368BDF80200B3F85A6401F039
:104D8C00A9F9D5F80130C0F8013023682849BDF8DD
:104D9C000220B3F85C0402F0AFFA2368ADF8060009
:104DAC00B3F85C0402F03EFABDF80630BDF8021010
:104DBC00834207D11D4B1B68B3F85C0402F092F9D7
:104DCC0038B9C6E7084601F085F9037823F00803E3
:104DDC000370BDF8040001F07DF9811C304602F02F
:104DEC00D9FA0028B5D0BDF8040001F073F9807829
:104DFC0001F070F9037863F07F030370BDF80400D1
:104E0C0001F068F9BDF806304370BDF8040001F0FC
:104E1C0061F93A460021807802F024F900288CD000
:104E2C00BDF804208FE702B0BDE8F081F4E3032065
:104E3C00BD5E0D0073B51C4E3368B3F99B35013361
:104E4C009BB2012B01D802200FE00020FFF726FBBC
:104E5C0005460120FFF722FB044601F03BF90378DD
:104E6C0003F00703042B03D00620FFF73FFA19E0E9
:104E7C00FFF722FBFFF720FB326892F89435042BE6
:104E8C0010D092F8583492F8592443EA022302AA1B
:104E9C00294622F8023D204601F056FCBDF80600DA
:104EAC00FFF79AFB02B070BDF4E3032037B5174C43
:104EBC002368B3F99B35013301D102200BE00020AC
:104ECC00FFF7ECFA054601F005F9037803F0070348
:104EDC00032B03D00620FFF709FA14E0FFF7ECFAD6
:104EEC00236893F89425042A0DD00DF10602294667
:104EFC00D88901F029FC20B1BDF80600FFF76CFB46
:104F0C0001E0FFF7DDFB03B030BD00BFF4E303208D
:104F1C0070B5184D2B68B3F99B3501339BB2012B3F
:104F2C0001D8022021E00120FFF7B8FA0446002046
:104F3C00FFF7B4FA0646204601F0CCF8037803F0EC
:104F4C000703032B01D006200FE0FFF7B5FAFFF79C
:104F5C00B3FA2B6893F89425042A0AD032462146DA
:104F6C00D88901F03FFC20B90D20BDE87040FFF757
:104F7C00BDB970BDF4E3032038B5284C2568B5F9EC
:104F8C009B3501339BB2022B01D8022035E0B5F9D9
:104F9C009D25A5F89B2513B203F5337305EB43034D
:104FAC00B3F8070001F096F8B0F90130A5F89D357B
:104FBC00FFF782FA2368988901F08CF8037823F0C4
:104FCC00100303702368988901F0D6FF0020216834
:104FDC00FFF764FA8881FFF76FFA2368B3F99B3502
:104FEC000133D2D00020FFF759FA01F073F803789F
:104FFC0003F00703012B04D00620BDE83840FFF76F
:10500C0075B90020FFF74AFA246801F063F8B0F98B
:10501C0001306381BDE83840FFF74EBAF4E303205A
:10502C0070B5294C2568B5F99B3501339BB2032B20
:10503C0001D8022034E00020FFF730FAB5F99D25A5
:10504C00A5F89B2513B203F5337305EB4303064612
:10505C00B3F8070001F03EF8B0F90130A5F89D3522
:10506C00FFF72AFA2368988901F034F8037823F0C3
:10507C00100303702368988901F07EFF00202168DB
:10508C00FFF70CFA8881FFF717FA0020FFF706FAF2
:10509C0001F020F8037803F00703012B04D006205D
:1050AC00BDE87040FFF722B90020FFF7F7F924683C
:1050BC0001F010F8B0F901306381FFF7FDF93046CB
:1050CC00BDE87040FFF788BAF4E3032070B5B84C24
:1050DC00236893F89465012E40F06981FFF734F949
:1050EC0023685D895B683146A8B2984722680378CB
:1050FC005189A2F89815012B88B282F89A3507D0FD
:10510C001189814204D20420BDE87040FFF7EEB84B
:10511C00013080B25081282B00F23D81DFE813F082
:10512C003E0129002D0030003300360039003C00D0
:10513C003F004200450048004B004E005100540017
:10514C0057005A005D0060006300660069006C0047
:10515C006F007200750078007B003E018900990099
:10516C00AA00BA00C900DB00EB00FB000B011B011D
:10517C002B01032382F8943510E1FFF7A1FA0DE11E
:10518C00FFF764FA0AE1FFF797F907E1FFF7F4FE7E
:10519C0043E0FFF745FF40E0FFF7EEFAFEE0FFF7D4
:1051AC00F1FAFBE0FFF7F4FAF8E0FFF7F7FAF5E0B5
:1051BC00FFF7FAFAF2E0FFF7FDFAEFE0FFF700FB7A
:1051CC00ECE0FFF76DFBE9E0FFF770FBE6E0FFF7C3
:1051DC0073FBE3E0FFF7C2FBE0E0FFF7C5FBDDE0AC
:1051EC00FFF7C8FBDAE0FFF7CBFBD7E0FFF7CEFB0E
:1051FC00D4E0FFF7D1FBD1E0FFF758FECEE0FFF78C
:10520C0087FECBE0FFF7FCF9C8E0FFF71FFDC5E018
:10521C00FFF710FEC2E0FFF7C5FB236893F8942557
:10522C00012A40F0C2805A891B899A4240F2BF8001
:10523C0069E71189831C8B423FF665AF53680221E5
:10524C00984722680088538902335381FFF78AFC00
:10525C00A4E01189831C8B423FF655AF53680221A1
:10526C0098472268B0F90000538902335381FFF745
:10527C0040FA93E01189831C8B423FF644AF53688C
:10528C000221984722680088538902335381FFF723
:10529C0070FC83E01189831C8B423FF634AF53685A
:1052AC0002219847226800885389023353810121D7
:1052BC000EE01189831C8B423FF625AF5368022107
:1052CC0098472268B0F900005389023353810021BA
:1052DC00FFF7FEF962E01189831C8B423FF613AF96
:1052EC0053680221984722680088538902335381FE
:1052FC00FFF746FC52E01189831C8B423FF603AF4B
:10530C0053680221984722680088538902335381DD
:10531C00FFF77EF942E01189831C8B423FF6F3AE16
:10532C0053680221984722680088538902335381BD
:10533C00FFF7D2F832E01189831C8B423FF6E3AEC3
:10534C00536802219847226800885389023353819D
:10535C00FFF734F822E01189831C8B423FF6D3AE61
:10536C00536802219847226800885389023353817D
:10537C00FFF7DAF812E01189831C8B423FF6C3AEBB
:10538C00536802219847226800885389023353815D
:10539C00FFF7F6F802E00120FEF7A8FF236893F868
:1053AC009425012A03D05D8170BD2368FBE770BD95
:1053BC00F4E3032038B5104C23680122198183F8DB
:1053CC00942502210022586083F895259972DA728F
:1053DC002546236801215A685889904703783BB1C8
:1053EC00FFF774FE2B6893F89435012BF1D038BD80
:1053FC00BDE83840FFF76ABEF4E3032038B50D4C26
:10540C00236893F89435042B13D000B2FFF771F98D
:10541C002368B3F99D55FFF7C5FA2368B3F99D25A9
:10542C00AA4206DD93F89435012B02D1FFF74EFE0C
:10543C00F3E738BDF4E3032038B50C46054602F01B
:10544C00EBFB1149FEF72DFE2846FFF792FB02F00D
:10545C00E3FB0E49FEF725FE2046FFF7BDF802F0F0
:10546C00DBFB0B49FEF71DFEFFF752FD02F0D4FBF0
:10547C000849FEF716FE084B1B6893F89405043890
:10548C0018BF012038BD00BF978C0D00A08C0D00FB
:10549C00A98C0D00B28C0D00F4E3032038B5454DFA
:1054AC00454A2B6800241A601C715C719C71DC717C
:1054BC001C725C729C72DC7283F8944583F895457F
:1054CC002B684FF0FF3283F89B2583F89C2583F8DB
:1054DC009D2583F89E251C735C73A3F8960583F8B1
:1054EC005C4483F85D4400F0E1FD28680B231A4608
:1054FC0000F26B4100F2634001F08EFA00F022FDE5
:10550C002968204601F58B6100F066FE2B68B3F824
:10551C00580400F0DFFD037843F0100303702B6890
:10552C00B3F8580400F0D6FD44708470286800F27B
:10553C005A4001F00AFD2B68B3F85A0400F0CAFD7A
:10554C00037843F0100303702B68B3F85814B3F8C6
:10555C005A0401F0C7FD286800F25C4001F0F5FC2C
:10556C002B68B3F85C0400F0B5FD037843F010032E
:10557C000370296804200E3100F02EFE2B68D889A8
:10558C0000F0A8FD037843F0100303702B68B3F907
:10559C009605FFF7AEF82046FEF780FF0146204641
:1055AC00FFF74AFFFEF788FF00F05AFCBDE83840D1
:1055BC0000F054B9F4E3032031420D0001F0FEBFBA
:1055CC00054B1B68B3F89625824202D183F862140E
:1055DC0070470720FEF78ABEF4E3032010B50020C5
:1055EC00FFF7C7FAFFF726FC0020FEF757FF00F085
:1055FC0071FDB0F90140E4B2FEF75EFF204610BD2C
:10560C00072808B508D8012320B15B000138DBB2AC
:10561C00C0B2F9E7184608BD0B20FEF767FE4FF045
:10562C00000008BD08B5074B1B68B3F896258242ED
:10563C0002D193F8620408BD0720FEF757FE4FF025
:10564C00FF3008BDF4E3032013B5264C236898897A
:10565C0001F0E8FD022803D00320FEF747FE3FE0EF
:10566C0023680DF106029889012101F0ABFCBDF80D
:10567C00060000F02FFDB0F901301CB29BB2072BD5
:10568C0027D8FEF7BDFF2046FFF733F80020FEF7C2
:10569C0005FF0446FEF710FF2146002001F02BF811
:1056AC001149082001F012F810490A2001F00EF8F7
:1056BC000F490B2001F00AF80E49032001F006F8FF
:1056CC000D49092001F002F80C490C2000F0FEFFF6
:1056DC0004E0FEF7F5FF0B20FEF708FEFFF7A0FC39
:1056EC0002B010BDF4E3032001590D0061590D0007
:1056FC00BD590D0011580D003D580D00015A0D00FB
:10570C0037B5244C2368988901F08CFD022801DD03
:10571C00032022E02368B3F8600401F083FD78B322
:10572C002368988901F07EFD01280DD023680DF1C6
:10573C0006020121988901F045FCBDF8060000F035
:10574C00C9FCB0F8015000E000252368B3F86004F0
:10575C0001F068FDA84203D80720FEF7C7FD16E04C
:10576C000C4B01381B68411B0DF1060289B2B3F8D2
:10577C00600401F027FCBDF80600FEF72DFF04E0E5
:10578C00FEF79EFF0720FEF7B1FDFFF749FC03B0C3
:10579C0030BD00BFF4E30320F7B5194C23680DF1BD
:1057AC00060201210646988901F00CFCBDF80600A2
:1057BC0000F090FC037803F00703012B1DD1B0F926
:1057CC000130D3B10020FEF723FFFFF707FFFFF7EF
:1057DC0017FF23680546C7B2B3F89605FFF722FFFB
:1057EC00C3B216B147EA030102E020EA0501C9B2CF
:1057FC002368B3F89605FFF7E3FE03B0F0BD00BFD6
:10580C00F4E3032008B5094B1B68988901F00AFDE5
:10581C00022804D00320BDE80840FEF767BD012034
:10582C00FFF7BAFFBDE80840FFF7A6BBF4E303207F
:10583C0008B5094B1B68988901F0F4FC022804D0C8
:10584C000320BDE80840FEF751BD0020FFF7A4FF80
:10585C00BDE80840FFF790BBF4E3032010B501202E
:10586C00FFF787F9174CFEF7CBFE0020FEF716FE6C
:10587C002368A3F85E0403F58C6001F066FB2368D3
:10588C00B3F85E0400F026FC037843F010030370B9
:10589C002368B3F8600400F01DFC03780A4943F058
:1058AC00100303702368002483F86244022000F084
:1058BC000DFF2046054900F009FFBDE81040FFF739
:1058CC0027BB00BFF4E3032055560D000D570D0008
:1058DC0038B505460846FFF793FEC4B22846FFF7D5
:1058EC00A1FEC0B2044321462846FFF769FE2046BC
:1058FC0038BD000010B50D4C2368988901F092FC5E
:10590C00012804D00320BDE81040FEF7EFBC0020B6
:10591C00FEF77EFEFFF762FE23680146B3F896059C
:10592C00FFF7D6FFBDE81040FFF726BBF4E30320DA
:10593C0038B505460846FFF763FE04462846FFF7D0
:10594C0071FE20EA0400C4B221462846FFF738FE57
:10595C00204638BD10B50D4C2368988901F062FCC7
:10596C00012804D00320BDE81040FEF7BFBC002086
:10597C00FEF74EFEFFF732FE23680146B3F896059C
:10598C00FFF7D6FFBDE81040FFF7F6BAF4E30320AB
:10599C0038B505460846FFF733FE04462846FFF7A0
:1059AC0041FE2040C0B2003018BF012038BD0000BD
:1059BC0010B50F4C2368988901F034FC012804D0F1
:1059CC000320BDE81040FEF791BC0020FEF720FE3E
:1059DC00FFF704FE23680146B3F89605FFF7D8FFDE
:1059EC0000B2FEF786FEBDE81040FFF719BB00BF02
:1059FC00F4E3032037B5254C2368988901F012FC99
:105A0C00022801D0032010E023680DF106029889CA
:105A1C00012101F0D7FABDF8060000F05BFB03781A
:105A2C0003F00703052B03D00620FEF75FFC2BE0E9
:105A3C000020FEF7EDFDFFF7D1FD2368054601467A
:105A4C00B3F89605FFF7A4FFE0B128B2FEF751FEBC
:105A5C000020FEF723FD0546FEF72EFD23682946A0
:105A6C00B3F8600401F03EFB0020FEF7D1FD0120ED
:105A7C00FEF7CEFD0020FFF7C1FC2368B3F86004ED
:105A8C0001F07AFBFFF778FA03B030BDF4E30320A2
:105A9C002DE9F043624C236885B0988901F0C2FB74
:105AAC000328A04601D0032018E0236802AA012194
:105ABC00988901F087FA2368BDF80870988902AAC2
:105ACC00022101F07FFABDF80860304600F002FBBD
:105ADC00037803F00703042B03D10620FEF706FC22
:105AEC009BE0FEF731FC9DF8083023F0070343F0F0
:105AFC0003038DF808304FF00009D8F80020484D0A
:105B0C0092F890351FFA89F49C423FD2C4EBC4043E
:105B1C0022443846B2F87B35ADF8093000F0DAFA99
:105B2C00014602A800F0C4F909F101090028E4D1EA
:105B3C002A681319B2F89625A3F88025B3F87D05C9
:105B4C0000F0C8FA037823F0100303702B68234489
:105B5C003046A3F87D6500F0BDFA037843F01003DE
:105B6C000370FEF7F1FB2B681C4494F87F05B4F826
:105B7C007D35B4F87B25B4F880150130C0B284F8BB
:105B8C007F050090012000F0E9F942E0022B3DD89E
:105B9C00C3EBC303D418B2F89635A4F88035384655
:105BAC0000F098FAB0F80130A4F87B35384600F0D4
:105BBC0091FA037843F0100303702A6892F8903539
:105BCC00C3EBC30313443046A3F87D6500F082FA9F
:105BDC00037843F010030370296891F89035C3EBF8
:105BEC00C30319440120B1F87D35B1F87B2581F848
:105BFC007F0501F5AF610989009000F0AFF92A68C3
:105C0C0092F89035013382F8903502E00C20FEF7C3
:105C1C006DFBFFF7B1F9FEF797FB05B0BDE8F0831C
:105C2C00F4E303202DE9FF41334D2B68988901F0F3
:105C3C00F9FA022803D00320FEF758FB59E02B6831
:105C4C0002AA9889012101F0BDF9BDF80870FEF790
:105C5C007BFB9DF8083023F0070343F003038DF81A
:105C6C0008304FF000082B68234E93F890251FFA4C
:105C7C0088F4A24226D9C4EBC40423443846B3F8B2
:105C8C007B35ADF8093000F025FA014602A800F08A
:105C9C000FF908F101080028E5D130682044B0F86C
:105CAC007D35B0F87B25B0F8801590F87F05009015
:105CBC00022000F053F933681C44B4F87D05FEF75C
:105CCC008BFC12E0FEF7FCFC33683846B3F89645C3
:105CDC0000F000FA3368B0F80120B3F85834002112
:105CEC0000910220214600F039F9FFF799F9FEF7EF
:105CFC002BFB04B0BDE8F081F4E3032037B51C4C5A
:105D0C002368988901F08EFA022803D00320FEF74D
:105D1C00EDFA2BE02368002583F89055FEF770FC14
:105D2C0023680DF106029889012101F04BF9BDF8A9
:105D3C000610284600F0DFFC0E49212000F0C6FCBE
:105D4C000D49222000F0C2FCFEF7FEFA0B4923207D
:105D5C0000F0BCFC0A49242000F0B8FCFEF7F4FA71
:105D6C000849252000F0B2FCFFF75AF903B030BD0A
:105D7C00F4E303209D5A0D00315C0D003D5E0D00D7
:105D8C00955D0D00E95D0D0013B5134C23689889E2
:105D9C0001F048FA022803D00320FEF7A7FA18E016
:105DAC002368B3F89105FEF717FCFEF7CDFA2368CC
:105DBC000DF106029889012101F004F9BDF80610D5
:105DCC00282000F098FCFEF7BFFAFFF7D5F8FEF795
:105DDC00BBFA02B010BD00BFF4E3032013B5134CA3
:105DEC002368988901F01EFA022803D00320FEF7DD
:105DFC007DFA18E02368B3F89105FEF7EDFBFEF78A
:105E0C00A3FA23680DF106029889012101F0DAF852
:105E1C00BDF80610292000F06EFCFEF795FAFFF78E
:105E2C00ABF8FEF791FA02B010BD00BFF4E303200B
:105E3C0010B50A4C2368988901F0F4F9012804D0B4
:105E4C000320BDE81040FEF751BA236893F8900583
:105E5C00FEF74FFCBDE81040FFF7E2B8F4E3032077
:105E6C0070B5114C2020FEF784FE2368002583F8C2
:105E7C009055FEF7C5FB0D49022000F027FC284683
:105E8C002668FEF70BFB2368A6F89105B3F891057D
:105E9C0000F020F9037843F010030370FFF738F893
:105EAC00BDE87040FEF750BAF4E30320095D0D0025
:105EBC0002780B7812F0070205D113F0070318BF14
:105ECC0001235842704713F0070333D0012A0BD13A
:105EDC00012B31D1B0F90120B1F901309A422DDBFF
:105EEC00CCBF0120002010E0022A05D0022B03D0E9
:105EFC00032A0CD1032B21D1B0F80120B1F80130C9
:105F0C009A421BD38CBF0120002040B27047042A58
:105F1C0001D1042BEFE7062A10D1062B0ED1D0F8B5
:105F2C000130D1F80100834208D3834294BF002092
:105F3C000120704701207047022BDCE74FF0FF3047
:105F4C0070470000044B18680B2300F2F7411A4607
:105F5C0000F2EF4000F060BDF4E303202DE9F047C0
:105F6C00244D9DF820808246286889461E4690F86C
:105F7C00F61490F8F4341944C9B200F2EF40174605
:105F8C0000F06FFD0446286800F2EF4000F054FD6D
:105F9C00A0B1286890F8F43490F8F614194401393B
:105FAC00C9B200F2EF4000F051FD23680360636852
:105FBC00436023890381A37A837204E0286800F28A
:105FCC00EF4000F06AFD84F800A0A4F8019084F87A
:105FDC000380A780304600F07DF80368C4F80630D3
:105FEC0003792868A37200F2EF40BDE8F04700F097
:105FFC008FBD00BFF4E303202DE9F843294D2B7826
:10600C000133DBB2082B2B700CD827490B6800EB43
:10601C00800018330E461A5C12F0200F07D001E0F6
:10602C00120638D42B78013B2B70BDE8F88342F074
:10603C0020021A540C6818342318225C02F0070151
:10604C000429EDD1B3F8013016277B43C3F58563E2
:10605C0002331C4443F6FF79A38A43F48043A382A2
:10606C004FF0000834F81830190498B203D5C0F377
:10607C000E00FFF7C1FF08F10108B8F10A0FF1D1CA
:10608C00A38AC3F30D034B45CCD0346807FB1344F0
:10609C0004F24244E0E79878FF28C3D0FFF7ACFF46
:1060AC00C0E700BF0CDD0320F4E30320084B1B68A2
:1060BC0003F1A4021A6103F58B625A61002103F10A
:1060CC00A002183302F8011D9A42FBD1704700BFA1
:1060DC00F4E30320034B1B6800EB800018331844D7
:1060EC00704700BFF4E303202DE9F0432E490F68FD
:1060FC007E6907F58B639B1B1BB2162207F2424588
:10610C00B3FBF2F300240FFA83F96FF0150822B2F7
:10611C00914525DDB5F914E008FB04F2BEF1000F42
:10612C0002F22A4204F1010CA5F1160501DA6446CB
:10613C00EDE704800B68183313444FF0FF321A75E7
:10614C005A750022114603EB420003F8121001327B
:10615C00052A41708172C172F5D10120BDE8F0832E
:10616C003C69A6F11602A2421BD303800B68586946
:10617C00A0F116025A614FF0FF3300F8023C00F810
:10618C00013C0023194600EB43020133052B02F8B6
:10619C00161C02F8151C02F80C1C02F80B1CF2D190
:1061AC00DBE70020BDE8F083F4E3032008B500F042
:1061BC00070343F0080304280B7006D1481CFFF7B3
:1061CC0093FF003018BF012008BD052804BFFF2332
:1061DC008B70012008BD00002DE9F041204A1768A2
:1061EC003E6907F1180ECEEB06039BB205259446CB
:1061FC00B3FBF5F51C23AB421DD203EB83040EEB72
:10620C0004081EF8042012F0080F05D10B80DCF8EE
:10621C0000101831214418E003281DD102F00702A8
:10622C00032A19D10C88B8F80120944214D10B80A0
:10623C000120BDE8F0817B6905369E4209D80D80AE
:10624C00DCF8003019694A1D1A61BDE8F041FFF70E
:10625C00ADBF0020BDE8F08101339BB2CBE700BF9E
:10626C00F4E303202DE9F8435E4E326814690D46C1
:10627C0002F11801641A052324B2B4FBF3F402F5FD
:10628C008B6352699B1A162207461BB2A4B2B3FB4E
:10629C00F2F34FF6FF7C9BB21046013B9BB2634579
:1062AC0003D123464FF6FF7E14E000FB03F2C2F548
:1062BC00856202320A44B2F814E02EF4804EA2F841
:1062CC0014E0EAE7326803EB83001832115C21F02A
:1062DC0020011154013B9BB27345F3D104F1FF38FB
:1062EC001FFA88F84FF6FF790AE0326808EB88034A
:1062FC0013441B7EDB0606D408F1FF381FFA88F81E
:10630C00C845F2D103E04046FFF776FEF4E7013DC5
:10631C00ADB24FF6FF78454506D14FF6FF70314DC3
:10632C00162143F6FF770FE037F81500013DFFF714
:10633C0063FEADB2EFE7326804EB840E183212F84C
:10634C000E3013F0200F04D0013CA4B28442F2D1E1
:10635C0003E013F0080F19D1F6E7336803F1A40139
:10636C001A698A4206D912F8050C000702D4053ABC
:10637C001A61F5E703F58B615A698A4230D2B2F99A
:10638C00140000282CDB16325A61F5E723F00803C1
:10639C0002F80E302A68183202EB0E0C12F80E308E
:1063AC0003F00703042BCFD1BCF801304B43C3F5EA
:1063BC00856302331344B3F814E01EF4804FC3D149
:1063CC00B3F814E0CEF30E0CA3F814C0CEF30D0307
:1063DC00BB42B9D04B43C3F5856302331344EFE79B
:1063EC00BDE8F883F4E303202DE9F3479A499B4C6D
:1063FC000220FDF7FFFE9A490220FDF7FBFE9949AA
:10640C000220FDF7F7FE26689749336918369E1B64
:10641C000523B6FBF3F6B6B2721E0220FDF7EAFEB8
:10642C00236803F1180100231D469AB2964208D93D
:10643C0003EB830201338A5C100744BF0135ADB214
:10644C00F3E72A468949DFF81492DFF878A2022094
:10645C00FDF7D0FE052286490220FDF7CBFE002772
:10646C00BBB29E4264D9236807EB870843441B7E6A
:10647C001A075BD503F007033A465AF823307D49D7
:10648C000220FDF7B7FED9F8003043441B7EDB0633
:10649C0003D579490220FDF7ADFE2268183202EBD4
:1064AC00080312F8081001F00702013A052A39D83E
:1064BC00DFE802F0030603151D19B3F901202DE0E6
:1064CC00B3F8010000F004FB10EE100A02F0B2F871
:1064DC0002460B4602206949FDF78CFE22E0B3F818
:1064EC00012067491BE0D3F80120664917E04806F4
:1064FC0003D565490220FDF77DFE2368183303EBB5
:10650C00080213F90830002B06DA53785F499278A9
:10651C000220FDF76FFE05E0D2F801205C49022055
:10652C00FDF768FE5B490220FDF764FE013797E733
:10653C0022685949D2F8149002F58B63C9EB030316
:10654C0002204FF01609B3FBF9F94A46FDF752FE4B
:10655C002368002203F242431646914507DDB3F946
:10656C0014100029B8BF01360132163BF5E732464C
:10657C004A490220FDF73EFE162249490220FDF74A
:10658C0039FE4FF00008C14530DD27686FF0150368
:10659C0003FB087707F24247B7F91430002B22DAD5
:1065AC00424640490220FDF725FE4FF0000A07EB5A
:1065BC004A0319888AB2090408D55B893A49C3F39E
:1065CC000E03C2F30E020220FDF714FE0AF1010ABB
:1065DC00BAF1050FEBD1BB8A3449C3F30D031A464C
:1065EC000220FDF707FE08F10108CCE716277E43D1
:1065FC0005EB8508B044404602F00AF800222C4B0B
:10660C0002F096F900222B4B02F068F84FF48863E5
:10661C00CDE90001424628490220FDF7EBFD05EBD0
:10662C004502324425490220FDF7E4FD2268244945
:10663C005369126902209A1A0523B2FBF7F7B2FBD1
:10664C00F3F30097FDF7D6FD1249022002B0BDE826
:10665C00F047FDF7CFBD00BF3C8F0D00F4E30320E6
:10666C004D8F0D005E8F0D00708F0D00868F0D000D
:10667C00998F0D00AF8F0D00BA8F0D00BC8F0D00E0
:10668C00C08F0D00C58F0D00C98F0D00CD8F0D0073
:10669C00CE8B0D006E8F0D00D98F0D00F68F0D0077
:1066AC0010900D002D900D0035900D003E900D00BA
:1066BC00000091400000594050900D0074900D0066
:1066CC009E900D00208F0D0000F078BF70B506462F
:1066DC0000200D46FDF7E2FE04463046FEF749FA6F
:1066EC0028460021FDF7F4FFFEF7B0FA2046BDE87E
:1066FC007040FDF771BF70B5064600200D46FDF7E2
:10670C00CDFE04463046FEF734FA2846FDF764FF0A
:10671C00FEF79CFA2046BDE87040FDF75DBF30B532
:10672C000025EBB29A420DD90B7804785C400470CA
:10673C000B78634001F8013B0478634000F8013B9F
:10674C000135EEE730BD00002DE9F84F04460F4649
:10675C001646FFF7BFFC037803F00703042B2CD17C
:10676C002046FFF7B7FC1E4AB0F9013014684FF011
:10677C00160903FB194404F24244904643F6FF7A8F
:10678C00002534F8153098B21B0419D5C0F30E004F
:10679C00FFF7A0FC83463846FFF79CFC01465846A1
:1067AC00FFF786FB60B9043504EB450401206388D0
:1067BC00C3F30E033380BDE8F88F0020BDE8F88FDB
:1067CC000135052DDDD1A48AC4F30D035345F4D056
:1067DC001C46D8F8003004FB193404F24244CFE7CD
:1067EC00F4E303202DE9F04F89B0154683460F469C
:1067FC00FFF770FC874EB0F80130346816220FFAA0
:10680C0083F813FB02F34FF0FF39E31A03F242440F
:10681C00CDF808904B46CDF8049003924FF0000A47
:10682C0034F81A2090B2120406D4002B18DA0FFA9E
:10683C008AF30193434613E0C0F30E000593FFF770
:10684C0049FC04903846FFF745FC049A0146104673
:10685C00FFF72EFB059B18B90FFA8AF20292C1467C
:10686C000AF1010ABAF1050FDAD1B9F1000F5CDABD
:10687C00B4F8148043F6FF71C8F30D028A4207D0B6
:10688C0090463468039A08FB124404F24244C5E76C
:10689C0028460293FFF71EFC0278029B12F0070FAA
:1068AC0041D0002B1ADB162213FB02F3C3F58563D0
:1068BC003268019902331A4402EB41026FEA4747EE
:1068CC006FEA5747178332681344019A6FEA4545BC
:1068DC0003EB42036FEA55455D8424E00DF11E0085
:1068EC00FFF702FC002800F09280A28ABDF81E304F
:1068FC0002F44041C3F30D020A43A282326816210E
:10690C0001FB13236FEA47476FEA5747A3F842741A
:10691C00BDF81E2033686FEA454501FB12336FEA60
:10692C005545A3F84C54012071E02846FFF7D2FBE3
:10693C000278029902F0070202F0FF0016230431DC
:10694C007AB119FB03F9C9F58569336809F10209B4
:10695C00994409EB41016FEA45456FEA55454D8372
:10696C00E1E719FB03F9C9F585693368029D09F163
:10697C0002094B4403EB45031A765A763368994463
:10698C0009EB41018A76CA7634F91030002BCADB48
:10699C0001300528F8D15846FFF79CFBB0F80130C0
:1069AC0098450FD1A38A43F6FF72C3F30D039342AC
:1069BC00B9D05846FFF78EFBA38AC3F30D03A0F89A
:1069CC00013020E05846FFF785FBB0F80130356800
:1069DC0016225343C3F58563183502332B441046F6
:1069EC00998AC1F30D02904506D000FB02F3C3F562
:1069FC00856302332B44F3E7A28A01F44041C2F3CE
:106A0C000D02114399820023237563758BE709B03E
:106A1C00BDE8F08FF4E303204371002301600271A1
:106A2C008371C3717047C37981798B423CBF4279C2
:106A3C009B18581AC0B2704710B50446FFF7F3FF05
:106A4C0063790130C31A5842584110BD43798B42C7
:106A5C0002D8C91AC9B2FAE70279006801FB020030
:106A6C00704783791944C9B2FFF7F0BF8279C079B6
:106A7C00131A5842584170478379C2799A4208D008
:106A8C000133427983718379934204D39B1A8371C6
:106A9C00F9E7002070470120704738B50446C579E6
:106AAC00FFF7CAFF627930B96B1CE371E37993424B
:106ABC000BD39B1AF9E7A379E371591CA171A37944
:106ACC00934202D39B1AA371F9E7284638BD000004
:106ADC00C30BC0F34522DB074AB9C0F3080292B1DD
:106AEC000A4A800343F04053024013430BE03D2A13
:106AFC00DFBF0649800301400B43DABF603243EA33
:106B0C00C25343F0FF4300EE103A704700C07F00C1
:106B1C002DE9F843064601243046FFF784FF80B286
:106B2C00844228D225465FFA85F841463046FFF765
:106B3C0098FF08F1FF37FFB290F8009039463046C5
:106B4C00FFF78FFF03784B4502D80134A4B2E3E77B
:106B5C0041463046FFF785FF394680463046FFF701
:106B6C0080FF013D01460B224046ADB2FFF7D7FD39
:106B7C00002DEAD0D7E7BDE8F88300002DE9FF47E8
:106B8C00D24F396891F8906501F27B53C6EBC6067B
:106B9C0005461E449E4200F09B811C46AA8833F891
:106BAC00070B8242F6D1EB7820791E1AF6B2312E01
:106BBC003CDCB5F80130A4F80530AB882380608844
:106BCC00FFF788FA037823F00803037003A9062063
:106BDC00FFF702FB002800F08280BDF80C00FFF7E5
:106BEC0079FA2B4653F8062F02601B790371BDF816
:106BFC000C00FFF76FFA037843F00803037060880A
:106C0C00FFF768FA037823F010030370BDF80C004B
:106C1C006080FFF75FFA037843F010030370E878A5
:106C2C00207163882288B4F8051026E12E78022E94
:106C3C0004D1C61AF6B2312E40F31C81834240F0C7
:106C4C007F81B4F80520B5F801309A4200F07881C4
:106C5C0091F8592491F8583404AE43EA022326F8EB
:106C6C00023D2820B1F89185FDF7DEFB3246014646
:106C7C004046FFF769FD002800F0B980FDF720FDC4
:106C8C00BDF80E00FDF7A8FCA888FDF772FFFDF714
:106C9C00B7FCB4F90500FDF79DFB01462620FFF774
:106CAC002AFD61881B20FFF726FD2079FDF792FB5A
:106CBC0001462720FFF71FFDFDF7A2FC0020FDF782
:106CCC00EDFB8046B5F90100FDF784FB014626205B
:106CDC00FFF711FD03A90620FFF77EFA08B90D2076
:106CEC002BE0BDF80C00FFF7F5F92B4653F8062FF7
:106CFC0002601B790371BDF80C00FFF7EBF9037808
:106D0C0043F008030370BDF80C101B20FFF7F3FCD5
:106D1C00E878FDF75FFB01462720FFF7ECFC03202A
:106D2C00FEF76CFB0020FDF7B9FBFFF7D3F90378F6
:106D3C0003F00703042B03D00920FDF7D7FAFFE07B
:106D4C000020ADF80E00FDF7A9FB81462620FDF7CB
:106D5C006BFB324601464846FFF7F6FCBDF80E00C9
:106D6C00B4F8059020B1FFF7B5F9B0F8013000E0A8
:106D7C004B463A68A4F8053092F8583492F85924E6
:106D8C0043EA0223ADF80E306088FFF7A3F90378CD
:106D9C0023F0080303706088FFF79CF9037823F055
:106DAC00100303700020FDF779FB82461B20FDF7D2
:106DBC003BFB324601465046FFF7C6FCBDF80E00C1
:106DCC006080FFF787F9037843F010030370EB78CA
:106DDC002371BDF80E00FFF77DF93B68B0F8011088
:106DEC00B3F8962591423FD091453DD14AE0B5F894
:106DFC000130B4F805109AB2914235D8A4F8053098
:106E0C00AB8823806088FFF765F9037823F00803CB
:106E1C00037003A90620FFF7DFF900283FF45FAFEA
:106E2C00BDF80C00FFF756F92B4653F8062F0260FD
:106E3C001B790371BDF80C00FFF74CF9037843F094
:106E4C00080303706088FFF745F9037823F01003FB
:106E5C000370BDF80C006080FFF73CF9037843F039
:106E6C0010030370EB78237163882288B4F8051043
:106E7C00207902E06388B1F8961500900120FFF7A5
:106E8C006DF85DE093F8591493F8582442EA012206
:106E9C00ADF80E202920B3F89175FDF7C5FA3246EE
:106EAC0001463846FFF750FC0028DDD0FDF708FC02
:106EBC00BDF80E00FDF790FBA888FDF75AFE404682
:106ECC00FDF78AFB0220FEF799FACDE7F4E30320E5
:106EDC00B5F80130A6F80530AB88338003A906203D
:106EEC00FFF77AF900283FF4FAAEBDF80C00FFF773
:106EFC00F1F82B4653F8062F02601B790371BDF88D
:106F0C000C00FFF7E7F8037843F008030370BDF8B3
:106F1C000C007080FFF7DEF8037843F01003037069
:106F2C00E878307173883288B6F80510009001202B
:106F3C00FFF714F83A6892F89035013382F89035DF
:106F4C0004B0BDE8F08700BF704710B50146044699
:106F5C000420FFF741F970B12088FFF7BBF80378E4
:106F6C0043F0400303702088FFF7B4F8037803F074
:106F7C007F030370012010BD70B5FFF7ABF8104B09
:106F8C001A68B0F8013016214B43C3F585631832EB
:106F9C000233134443F6FF759C8AC4F30E069E829B
:106FAC00C4F30D03AB4205D04B43C3F585630233E9
:106FBC001344F1E7037823F00803037070BD00BF9E
:106FCC00F4E30320F8B507460C461546FFF782F8A4
:106FDC00037803F00703042B19D13846FFF77AF82E
:106FEC000378590613D514E09A8AC2F30D02624550
:106FFC0007F1010709D000FB02F3C3F585630233E7
:10700C000B441FFA87FE7645EED8764517D0002044
:10701C00F8BD3846FFF75EF8114B1968B0F801302F
:10702C0016225343C3F58563183102330A260B44E9
:10703C00B4FBF6F6002743F6FF7C1046E1E70A2185
:10704C00B4FBF1F201FB1244A4B233F8142093B256
:10705C001204DCD5C3F30E032B800120F8BD00BF56
:10706C00F4E30320F8B50D4614460A26B1FBF6F6F8
:10707C00FFF730F81A4B1A68B0F8013016214B4361
:10708C00C3F58563183202331344002743F6FF7CA3
:10709C001FFA87FEB6450DD2988AC0F30D006045E5
:1070AC0007F1010706D001FB00F3C3F5856302333A
:1070BC001344EDE7B64511D10A21B5FBF1F201FB02
:1070CC00125189B233F91120002A07DA6FEA4444CD
:1070DC006FEA544423F811400120F8BD0020F8BD9C
:1070EC00F4E3032073B50D46FEF7F4FF214EB0F820
:1070FC000140326816235C43C4F5856418320234AF
:10710C00144443F6FF701946A38AC3F30D0383425C
:10711C0006D001FB03F4C4F5856402341444F3E790
:10712C00002334F9131000299AB219DA01330A2B0F
:10713C00F7D10DF10600FEF7D7FFC0B1A38A03F417
:10714C004042BDF80630C3F30D031343A3823468E9
:10715C001622C3F30D0302FB134404F24244002233
:10716C006FEA45456FEA554524F81250012002B0EC
:10717C0070BD00BFF4E3032038B5FEF7ABFF284B1E
:10718C001968B0F8013016225343C3F585631831E2
:10719C0002330B4443F6FF74988AC0F30D00A042EF
:1071AC0003D025460020144606E0B3F90020002A3F
:1071BC004FF0000032DA0BE09A8AC2F30D02AA42B9
:1071CC0006D06243C2F58562023218468B18F3E78B
:1071DC00002133F91140002C8AB204DA01310A295A
:1071EC00F7D10A4600E042B103EB420333F8022C1C
:1071FC00C2F30E0223F8022C0EE078B1428AC2F3DD
:10720C000E0242829A8AC2F30E029A82838A6FEA33
:10721C0093336FEA83338382012038BD38BD00BFBE
:10722C00F4E3032070B5FEF755FF154B1A68B0F860
:10723C00013016214B43C3F58563183202331344D6
:10724C00002043F6FF75002433F91460002E06DB92
:10725C009A8A6FEA92326FEA82329A8270BD013456
:10726C0001300A2C80B2EFD19B8AC3F30D03AB42E1
:10727C0005D04B43C3F5856302331344E3E770BD7C
:10728C00F4E303202DE9F843044608460E46FFF7C5
:10729C005CFE48B32046FEF71DFF164FB0F80130D8
:1072AC003C68162202FB134404F2424443F6FF7876
:1072BC009146002534F8153099B21B040AD4A38AE0
:1072CC00C3F30D03434512D03C6809FB134404F28D
:1072DC004244EEE7C1F30E013088FFF703FF18B10B
:1072EC0001350A2DE6D1EAE70020BDE8F88301203C
:1072FC00BDE8F883F4E303202DE9F74F0F469046E1
:10730C00FEF7E8FE224DB0F801302C68162606FB7D
:10731C00134404F242444FF0000A43F6FF794FF055
:10732C00000B04EB4B0301931A88130490B21FD586
:10733C00C0F30E00FEF7CEFE0278019B12F0080F90
:10734C000DD01888C0F30E00FEF7C4FE0190404625
:10735C00FEF7C0FE019B01461846B84798B10BF1E9
:10736C00010B0AF1010ABBF10A0F1FFA8AFAD8D1F4
:10737C00A38AC3F30D034B4505D02C6806FB1344BD
:10738C0004F24244CBE7504603B0BDE8F08F00BF97
:10739C00F4E303202DE9F74306460F4600241FFAB9
:1073AC0084F94846FEF796FE037803F008035FFA6B
:1073BC0084F803F0FF0533BB4846FEF78BFE0378D9
:1073CC0003F0700343F04C0300F8013B87F8008096
:1073DC00FEF78AFED8B13046FFF724FF2C468046D4
:1073EC00A1B241450DD20DF106023046FFF7EAFD80
:1073FC00BDF806103878FFF775FE01340028EFD180
:10740C0005E0012503E001341C2CC8D100252846D9
:10741C0003B0BDE8F0830000F8B50F4F3D6895F858
:10742C0068440B23002105F263405C43FFF719FB12
:10743C002E192C440268C4F86B2406F26B46426881
:10744C00726002893281827A3868B27200F26340CB
:10745C00FFF712FB3046F8BDF4E3032008B5024BEE
:10746C001B681B68019308BD4C02030008B5024B56
:10747C001B685B68019308BD4C02030008B5024B06
:10748C001B681B69019308BD4C02030008B5024B35
:10749C001B685B69019308BD4C02030008B5024BE5
:1074AC001B689B69019308BD4C02030008B5024B95
:1074BC001B68DB69019308BD4C02030008B5024B45
:1074CC001B681B6A019308BD4C02030008B5024BF4
:1074DC001B681B68019308BD3C02030008B5024BF6
:1074EC001B68DB68019308BD3C02030008B5024B26
:1074FC001B681B69019308BD3C02030008B5024BD5
:10750C001B685B69019308BD3C02030008B5024B84
:10751C001B689B69019308BD3C02030008B5024B34
:10752C001B68DB69019308BD3C02030008B5024BE4
:10753C001B689B6A019308BD3C02030008B5024B13
:10754C001B685B69019308BD6402030008B5024B1C
:10755C001B689B68019308BD4802030008B5024BE9
:10756C001B681B69019308BD4802030008B5024B58
:10757C001B685B69019308BD4802030008B5024B08
:10758C001B685B6C019308BD4802030008B5024BF5
:10759C001B689B6C019308BD4802030008B5024BA5
:1075AC001B685B68019308BD1802030008B5024B09
:1075BC001B685B69019308BD1802030008B5024BF8
:1075CC001B681B68019308BD2C02030008B5024B15
:1075DC001B689B68019308BD6802030008B5024B49
:1075EC001B68DB68019308BD6802030008B5024BF9
:1075FC001B68DB6B019308BD4402030008B5024B0A
:10760C001B685B68019308BD4002030008B5024B80
:10761C001B689B68019308BD4002030008B5024B30
:10762C001B68DB68019308BD4002030008B5024BE0
:10763C001B681B69019308BD4002030008B5024B8F
:10764C001B685B69019308BD4002030008B5024B3F
:10765C001B689B69019308BD4002030008B5024BEF
:10766C001B68DB69019308BD4002030008B5024B9F
:10767C001B681B6A019308BD4002030008B5024B4E
:10768C001B681B6B019308BD4002030008B5024B3D
:10769C001B685B6B019308BD4002030008B5024BED
:1076AC001B685B68019308BD2002030008B5034BFF
:1076BC001B68D3F88830019308BD0000200203003A
:1076CC0008B5034B1B68D3F89430019308BD000038
:1076DC002002030008B5024B1B681B68019308BD10
:1076EC001C02030008B5024B1B685B68019308BDC4
:1076FC001C02030008B5024B1B685B6A019308BDB2
:10770C001C02030000231A464068FFF777BF0022D3
:10771C0002214068FFF782BF002211464068FFF744
:10772C0075BF002211464068FFF780BF00231A4640
:10773C0019464068FFF782BF00231A461946406875
:10774C00FFF784BF002281F001014068FFF786BF7C
:10775C0000224068FFF792BF002211464068FFF7F5
:10776C0095BF002211464068FFF780BF2DE9F0431A
:10777C00002495B016460D46074600F0ADFA21469A
:10778C0020220CA8009401F0D4F940230C9321463C
:10779C006B460CAA3046FFF721FF0446002844D163
:1077AC00024601216868FFF741FF0221804622460C
:1077BC006868FFF73BFF009E81462146002E34D0BF
:1077CC00002932D17368022B02D00A2B09D02AE08F
:1077DC00B8F1000F27D071693846043100F0A9FACE
:1077EC0020E0B9F1000F1ED07469112201A801F03C
:1077FC00A0F906238DF8143001AD04F108031834F8
:10780C00186859682A4603C20833A3421546F7D1B3
:10781C0001A906A807AD00F06DFA0FCD3C1D0FC4F1
:10782C002B6823700121F669C8E70098FFF7CEFE9C
:10783C00384615B0BDE8F083024B034A1A600022AB
:10784C005A607047F8E3032010910D000022114696
:10785C004068FFF7EBBE002211464068FFF706BFF9
:10786C00002211464068FFF711BF00224068FFF765
:10787C0005BF002281F001014068FFF7EFBE002335
:10788C001A4619464068FFF7E1BE00231A4619460E
:10789C004068FFF7D3BE002211464068FFF7B6BE22
:1078AC00002202214068FFF7B9BE00231A46406847
:1078BC00FFF7A4BE024B04225A60024A1A607047BA
:1078CC0000E4032044910D00002211464068FFF7AC
:1078DC00CDBE002211464068FFF7D8BE002240689A
:1078EC00FFF7CCBE002281F001014068FFF7B6BE65
:1078FC0000231A4601214068FFF7A8BE00231A4650
:10790C0019464068FFF79ABE002211464068FFF7FF
:10791C008DBE002211464068FFF778BE002202217E
:10792C004068FFF77BBE00231A464068FFF766BE2F
:10793C0038B5054688B104684CB1A3681BB1032265
:10794C002146204698471021204600F0C4FB2846CB
:10795C001421BDE8384000F0BEBB38BD10B103683F
:10796C005B681847704710B503680446BBB158688C
:10797C00FFF7ECFD78B923685A7C12B95868FFF709
:10798C00EDFD23685868FFF7F1FD206800232360A4
:10799C0028B1FFF7CDFF206808B1FFF7C9FF2046DB
:1079AC0010BD38B50446D0F8C40108B1FCF76FFB24
:1079BC00D4F8C00108B1FFF7E9FDD4F8BC5135B1DA
:1079CC002846FFF7D0FF0421284600F084FB2068EE
:1079DC0008B1FFF7C3FF204638BD000010B5044BBB
:1079EC00044640F8083BFFF7DCFF204610BD00BF03
:1079FC0078910D0038B50E4C0E4B236000250223F8
:107A0C0004F5E4706360A560C4F8C451C4F8C851AF
:107A1C00FFF7B4FD084BC4F8CC5184F8D051236067
:107A2C002046064A0649BDE8384000F04FBB00BF6F
:107A3C0008E4032010910D0078910D0078DD0320EF
:107A4C00E9790D0070474174704708B5007CFFF769
:107A5C006DFD20EAE07008BD08B5007CFFF746FD1F
:107A6C0020EAE07008BD08B5007CFFF74FFD30EA56
:107A7C00200028BF4FF0FF3008BD08B5007CFFF791
:107A8C003DFD30EA200028BF4FF0FF3008BD007CE0
:107A9C00FFF744BD10B51421044600F01CFB204632
:107AAC0010BD70B5457C04460E4625B9007CFFF729
:107ABC003DFD002805DD3146207CBDE87040FFF718
:107ACC000DBD284670BD000010B504460846114691
:107ADC00002262604FF47A72A260054A2260012291
:107AEC00207462741A46FFF7F1FC204610BD00BFEB
:107AFC00AC910D0038B50C4D296811F0010411D171
:107B0C002846FCF7C6FA68B1084A094B09482146D1
:107B1C00FFF7DAFF2846FCF7C1FA074A0749054880
:107B2C0000F0D4FA034838BD74E6032078E603204D
:107B3C00F0E50320DCE5032078DD0320517A0D000D
:107B4C0010B58368044613B10322014698472046BA
:107B5C0010BD41747047704708B50021007CFFF7D9
:107B6C009DFC30EA200028BF4FF0FF3008BD08B55F
:107B7C000121007CFFF792FC30EA200028BF4FF077
:107B8C00FF3008BD08B5007CFFF780FC20EAE070F0
:107B9C0008BD08B5007CFFF771FC20EAE07008BD59
:107BAC00007CFFF78BBC10B51421044600F093FA4F
:107BBC00204610BD38B50446007C0D46FFF766FC28
:107BCC00002801DC607C28B12946207CFFF76EFC84
:107BDC0020EAE07038BD000010B504460023636055
:107BEC004FF47A73A360054B23600123084621747C
:107BFC0063741146FFF732FC204610BDDC910D007A
:107C0C000022007CFFF732BC10B514220446002180
:107C1C0000F08FFF204610BD30B50E4D87B001A887
:107C2C00FFF7F2FF296811F0010410D12846FCF788
:107C3C0030FA60B101AA21460748FFF7CDFF28466C
:107C4C00FCF72CFA054A0649034800F03FFA0248B3
:107C5C0007B030BDFCE6032000E7032078DD0320ED
:107C6C00637B0D00704710B51821044600F033FA01
:107C7C00204610BDF0B5037D062B8DB00E4600F1ED
:107C8C0004074FF0000402D000F1080518E00CAD19
:107C9C00394605F8304D2F232A460A20FFF74EFCB3
:107CAC00284600F077FF33680246DB6829463046E9
:107CBC0098470FE024B12E21304600F019F9044406
:107CCC0015F8011D0A22304600F021F9BD4204448A
:107CDC00F0D120460DB0F0BD10B5054B0446112275
:107CEC0040F8043B002100F024FF204610BD00BFEB
:107CFC000C920D000346074A10B543F8042B01F112
:107D0C00100251F8044B43F8044B9142F9D10A7814
:107D1C001A7010BD0C920D0010B59DF8084044EA85
:107D2C00032343EA024242EA0161042341600375E2
:107D3C0010BD37B50D788B784A78C97800912946F3
:107D4C00FFF7EAFF03B030BD08B50C4B33B1FFF7BA
:107D5C0063FF03681B699847002809DC084B63B173
:107D6C00FFF7C8FE03681B699847002803DC08BDB1
:107D7C00AFF30080F2E7AFF3008008BD0000000015
:107D8C000000000008B5FFF7DFFFFFF70FFC014B09
:107D9C00186008BD4CE703200248034A0349121A35
:107DAC0000F0BCBE00F4032004F4032000940D008A
:107DBC0007B5002300931A466FF07701FFF780FC9C
:107DCC0003B05DF804FB000007B543880A2B08D00C
:107DDC00502B09D1094B1B683BB103B05DF804EB88
:107DEC001847FFF7E5FF06E0002300931A466FF0F3
:107DFC007701FFF765FC03B05DF804FB14E7032083
:107E0C0038B5104C104D2368AB42104B0CBF0122FF
:107E1C0000221A7002D0FFF7BFFF2560FFF7BEFBF0
:107E2C00044600F08FFE0A4B13B12046AFF30080DE
:107E3C0000210748FFF7DAFB00210648BDE838406F
:107E4C00FFF734BC00F403201E1C279A18E703200C
:107E5C0000000000D57D0D0010B50446FFF770FE44
:107E6C00204610BD0348044A04490023836000F0F7
:107E7C002DB900BF1CE7032078DD0320657E0D00C3
:107E8C00024B1A68024B1A60704700BF10DD0320CA
:107E9C002CE70320014B024A1A60704730E703209D
:107EAC00B2920D00F8B506460D468F180024BD425F
:107EBC000CD0336815F8011B9B6830469847002896
:107ECC0001DB0444F3E7002C08BF04462046F8BD50
:107EDC0070B505460C46084649B100F05BFE2B68B0
:107EEC00024621462846DB68BDE87040184770BD45
:107EFC0003689B68184738B50D210546FFF7F8FF56
:107F0C000A2104462846FFF7F3FF204438BD30B55C
:107F1C008BB00B4600218DF82410012A98BF0A2241
:107F2C000DF12304B3FBF2F505FB123303F0FF0351
:107F3C00092B94BF30333733DBB2214604F80139B7
:107F4C002B46002DEED1FFF7C3FF0BB030BD0CB4A8
:107F5C002DE9F04387B000AF07F13804054654F81B
:107F6C00049B3C600E4623464A461421381DFFF7FD
:107F7C00C1FB132805D8391D2846FFF7A9FF044675
:107F8C0013E000F1080323F00703E846ADEB030D03
:107F9C00411C23464A4668463C60FFF7ABFB6946EA
:107FAC002846FFF795FF0446C5461EB12846FFF745
:107FBC00A2FF044420461C37BD46BDE8F04302B086
:107FCC00704710B50446006808B1FFF7DFFA204689
:107FDC0010BD000010B5064C002320462360FFF7AF
:107FEC00CDFA2046034A0449BDE8104000F06EB8B3
:107FFC0034E7032078DD0320CF7F0D0010B5044655
:10800C00006818B1FFF76EFB0023236010BD10B59C
:10801C000446FFF7F3FF204610BD000010B5094CD5
:10802C0000204FF6FF732060A080A0712081638137
:10803C00FFF734FB2046044A0449BDE8104000F029
:10804C0045B800BF38E7032078DD03201B800D0006
:10805C00002211464068FFF709BB00221146406818
:10806C00FFF714BB00224068FFF708BB002281F029
:10807C0001014068FFF7F2BA00231A46194640681E
:10808C00FFF7E4BA00231A4619464068FFF7D6BA40
:10809C00002211464068FFF7C9BA00221146406819
:1080AC00FFF7B4BA002202214068FFF7B7BA0023E9
:1080BC001A464068FFF7A2BA024B03225A60024AE2
:1080CC001A60704744E7032024930D000B460146C9
:1080DC00184600F015BDFBF7D8BF0000184B1A6806
:1080EC00D1075CBF01221A60164B1A68D2075CBF1D
:1080FC0001221A60144B1A68D0075CBF01221A6067
:10810C00124B1A68D1075CBF01221A60104B1A6817
:10811C00D2075CBF01221A600E4B1A68D0075CBFF5
:10812C0001221A600C4B1A68D1075CBF01221A603D
:10813C000A4B1A68D2075CBF01221A60704700BF55
:10814C006CE7032068E7032064E7032060E7032063
:10815C005CE7032058E7032054E7032050E7032093
:10816C00244B1A68D0075CBF01221A60224B1A6894
:10817C00D1075CBF01221A60204B1A68D2075CBF82
:10818C0001221A601E4B1A68D0075CBF01221A60CC
:10819C001C4B1A68D1075CBF01221A601A4B1A6873
:1081AC00D2075CBF01221A60184B1A68D0075CBF5B
:1081BC0001221A60164B1A68D1075CBF01221A60A3
:1081CC00144B1A68D2075CBF01221A60124B1A6852
:1081DC00D0075CBF01221A60104B1A68D1075CBF34
:1081EC0001221A600E4B1A68D2075CBF01221A607A
:1081FC00704700BF9CE7032098E7032094E7032017
:10820C0090E703208CE7032088E7032084E7032012
:10821C0080E703207CE7032078E7032074E7032042
:10822C0070E70320244B1A68D0075CBF01221A6048
:10823C00224B1A68D1075CBF01221A60204B1A68C6
:10824C00D2075CBF01221A601E4B1A68D0075CBFB4
:10825C0001221A601C4B1A68D1075CBF01221A60FC
:10826C001A4B1A68D2075CBF01221A60184B1A68A5
:10827C00D0075CBF01221A60164B1A68D1075CBF8D
:10828C0001221A60144B1A68D2075CBF01221A60D3
:10829C00124B1A68D0075CBF01221A60104B1A6887
:1082AC00D1075CBF01221A600E4B1A68D2075CBF63
:1082BC0001221A60704700BFCCE70320C8E70320F7
:1082CC00C4E70320C0E70320BCE70320B8E7032082
:1082DC00B4E70320B0E70320ACE70320A8E70320B2
:1082EC00A4E70320A0E70320184B1A68D1075CBF52
:1082FC0001221A60164B1A68D2075CBF01221A6061
:10830C00144B1A68D0075CBF01221A60124B1A6812
:10831C00D1075CBF01221A60104B1A68D2075CBFF0
:10832C0001221A600E4B1A68D0075CBF01221A603A
:10833C000C4B1A68D1075CBF01221A600A4B1A68F1
:10834C00D2075CBF01221A60704700BFECE7032024
:10835C00E8E70320E4E70320E0E70320DCE7032061
:10836C00D8E70320D4E70320D0E7032081F00041B5
:10837C0002E000BF83F0004330B54FEA41044FEAFE
:10838C00430594EA050F08BF90EA020F1FBF54EA99
:10839C00000C55EA020C7FEA645C7FEA655C00F035
:1083AC00E2804FEA5454D4EB5555B8BF6D420CDD06
:1083BC002C4480EA020281EA030382EA000083EA89
:1083CC00010180EA020281EA0303362D88BF30BD29
:1083DC0011F0004F4FEA01314FF4801C4CEA11317F
:1083EC0002D0404261EB410113F0004F4FEA0333DE
:1083FC004CEA133302D0524263EB430394EA050F69
:10840C0000F0A780A4F10104D5F1200E0DDB02FAD7
:10841C000EFC22FA05F2801841F1000103FA0EF26B
:10842C00801843FA05F359410EE0A5F120050EF131
:10843C00200E012A03FA0EFC28BF4CF0020C43FA62
:10844C0005F3C01851EBE37101F0004507D54FF06F
:10845C00000EDCF1000C7EEB00006EEB0101B1F5BF
:10846C00801F1BD3B1F5001F0CD349085FEA300005
:10847C004FEA3C0C04F101044FEA445212F5800F10
:10848C0080F09A80BCF1004F08BF5FEA500C50F1AD
:10849C00000041EB045141EA050130BD5FEA4C0C90
:1084AC00404141EB010111F4801FA4F10104E9D119
:1084BC0091F0000F04BF01460020B1FA81F308BF10
:1084CC002033A3F10B03B3F120020CDA0C3208DDDC
:1084DC0002F1140CC2F10C0201FA0CF021FA02F1B7
:1084EC000CE002F11402D8BFC2F1200C01FA02F127
:1084FC0020FA0CFCDCBF41EA0C019040E41AA2BF4C
:10850C0001EB0451294330BD6FEA04041F3C1CDA13
:10851C000C340EDC04F11404C4F1200220FA04F033
:10852C0001FA02F340EA030021FA04F345EA0301DD
:10853C0030BDC4F10C04C4F1200220FA02F001FA9F
:10854C0004F340EA0300294630BD21FA04F0294621
:10855C0030BD94F0000F83F4801306BF81F48011BA
:10856C000134013D4EE77FEA645C18BF7FEA655C2D
:10857C0029D094EA050F08BF90EA020F05D054EAFF
:10858C00000C04BF1946104630BD91EA030F1EBF04
:10859C000021002030BD5FEA545C05D14000494108
:1085AC0028BF41F0004130BD14F580043CBF01F5FB
:1085BC00801130BD01F0004545F0FE4141F47001E1
:1085CC004FF0000030BD7FEA645C1ABF19461046BC
:1085DC007FEA655C1CBF0B46024650EA013406BFBD
:1085EC0052EA033591EA030F41F4002130BD00BF7C
:1085FC0090F0000F04BF0021704730B54FF4806439
:10860C0004F132044FF000054FF0000150E700BFB9
:10861C0090F0000F04BF0021704730B54FF4806418
:10862C0004F1320410F0004548BF40424FF0000105
:10863C003EE700BF42004FEAE2014FEA31014FEA48
:10864C0002701FBF12F07F4393F07F4F81F0605197
:10865C00704792F0000F14BF93F07F4F704730B506
:10866C004FF4607401F0004521F0004120E700BF99
:10867C0050EA010208BF704730B54FF000050AE020
:10868C0050EA010208BF704730B511F0004502D521
:10869C00404261EB41014FF4806404F132045FEA23
:1086AC00915C3FF4DCAE4FF003025FEADC0C18BFC8
:1086BC0003325FEADC0C18BF033202EBDC02C2F1BE
:1086CC00200300FA03FC20FA02F001FA03FE40EA50
:1086DC000E0021FA02F11444C1E600BF70B54FF050
:1086EC00FF0C4CF4E06C1CEA11541DBF1CEA135532
:1086FC0094EA0C0F95EA0C0F00F0DEF82C4481EA9A
:10870C00030621EA4C5123EA4C5350EA013518BFB9
:10871C0052EA033541F4801143F4801338D0A0FBA6
:10872C0002CE4FF00005E1FB02E506F00042E0FB53
:10873C0003E54FF00006E1FB03569CF0000F18BF59
:10874C004EF0010EA4F1FF04B6F5007F64F5407401
:10875C0004D25FEA4E0E6D4146EB060642EAC62194
:10876C0041EA55514FEAC52040EA5E504FEACE2E01
:10877C00B4F1FD0C88BFBCF5E06F1ED8BEF1004F04
:10878C0008BF5FEA500E50F1000041EB045170BD80
:10879C0006F0004646EA010140EA020081EA0301C4
:1087AC00B4EB5C04C2BFD4EB0C0541EA045170BDC0
:1087BC0041F480114FF0000E013C00F3AB8014F13A
:1087CC00360FDEBF002001F0004170BDC4F1000483
:1087DC00203C35DA0C341BDC04F11404C4F1200504
:1087EC0000FA05F320FA04F001FA05F240EA02005F
:1087FC0001F0004221F0004110EBD37021FA04F695
:10880C0042EB06015EEA430E08BF20EAD37070BD4E
:10881C00C4F10C04C4F1200500FA04F320FA05F0AD
:10882C0001FA04F240EA020001F0004110EBD370AF
:10883C0041F100015EEA430E08BF20EAD37070BD1F
:10884C00C4F1200500FA05F24EEA020E20FA04F3F8
:10885C0001FA05F243EA020321FA04F001F00041A7
:10886C0021FA04F220EA020000EBD3705EEA430E18
:10887C0008BF20EAD37070BD94F0000F0FD101F047
:10888C000046400041EB010111F4801F08BF013C80
:10889C00F7D041EA060195F0000F18BF704703F0BE
:1088AC000046520043EB030313F4801F08BF013D45
:1088BC00F7D043EA0603704794EA0C0F0CEA135501
:1088CC0018BF95EA0C0F0CD050EA410618BF52EABB
:1088DC004306D1D181EA030101F000414FF00000C1
:1088EC0070BD50EA410606BF1046194652EA4306CF
:1088FC0019D094EA0C0F02D150EA013613D195EA43
:10890C000C0F05D152EA03361CBF104619460AD18A
:10891C0081EA030101F0004141F0FE4141F4700194
:10892C004FF0000070BD41F0FE4141F4780170BD84
:10893C0070B54FF0FF0C4CF4E06C1CEA11541DBFE9
:10894C001CEA135594EA0C0F95EA0C0F00F0A7F8EB
:10895C00A4EB050481EA030E52EA03354FEA013118
:10896C0000F088804FEA03334FF0805545EA13132B
:10897C0043EA12634FEA022245EA111545EA1065F3
:10898C004FEA00260EF000419D4208BF964244F18A
:10899C00FD0404F5407402D25B084FEA3202B61AA9
:1089AC0065EB03055B084FEA32024FF480104FF47D
:1089BC00002CB6EB020E75EB030E22BFB61A7546F1
:1089CC0040EA0C005B084FEA3202B6EB020E75EB84
:1089DC00030E22BFB61A754640EA5C005B084FEAEC
:1089EC003202B6EB020E75EB030E22BFB61A7546B9
:1089FC0040EA9C005B084FEA3202B6EB020E75EBC4
:108A0C00030E22BFB61A754640EADC0055EA060E84
:108A1C0018D04FEA051545EA16754FEA06164FEAC7
:108A2C00C30343EA52734FEAC2025FEA1C1CC0D173
:108A3C0011F4801F0BD141EA00014FF000004FF000
:108A4C00004CB6E711F4801F04BF01430020B4F1C1
:108A5C00FD0C88BFBCF5E06F3FF6AFAEB5EB030C79
:108A6C0004BFB6EB020C5FEA500C50F1000041EB76
:108A7C00045170BD0EF0004E4EEA113114EB5C0443
:108A8C00C2BFD4EB0C0541EA045170BD41F4801116
:108A9C004FF0000E013C90E645EA060E8DE60CEA1E
:108AAC00135594EA0C0F08BF95EA0C0F3FF43BAF3B
:108ABC0094EA0C0F0AD150EA01347FF434AF95EAF2
:108ACC000C0F7FF425AF104619462CE795EA0C0FD6
:108ADC0006D152EA03353FF4FDAE1046194622E7A3
:108AEC0050EA410618BF52EA43067FF4C5AE50EA7D
:108AFC0041047FF40DAF52EA43057FF4EBAE12E76D
:108B0C0010B5054C13462CB10A4601460220AFF3B2
:108B1C00008010BD204610BD0000000010B5431EA3
:108B2C000A44914204D011F8014B03F8014FF8E7C5
:108B3C0010BD02440346934202D003F8011BFAE72E
:108B4C007047000038B5124B1C68A36B0546D3B9AF
:108B5C001820FEF7BFFD43F20E33A06303804AF6E4
:108B6C00CD33438041F2342383804EF26D63C38056
:108B7C004DF6EC630381052343810B238381012292
:108B8C000023C0E90423A36B00221D615A6138BD88
:108B9C0074DD0320034613F8012B002AFBD1181AAD
:108BAC00013870471D400D0059400D0085400D00E7
:108BBC0089400D0000000000446174206E756D62E8
:108BCC006572202564005374617274004242564DE4
:108BDC002053544152544544203A44200052656776
:108BEC006973746572696E672066756E6374696FFC
:108BFC006E7300466972737420646F6E6520004951
:108C0C004E495420444F4E45004445564943452057
:108C1C0043524153484544004552524F522025641B
:108C2C00200004002500002612001D25010026133B
:108C3C00001D000105022502001C24040024010073
:108C4C002100000000001C24F4012401002100007C
:108C5C004E2F4100564D3A0A0973746174653A20DF
:108C6C0025642025730A0970633A2025640A096972
:108C7C006E7374723A2025730A096572726F7220D2
:108C8C0073746174653A2025730A005465737420FB
:108C9C00342E31005465737420342E3200546573B5
:108CAC007420342E33005465737420342E340054E5
:108CBC0065737420300054657374203100546573EF
:108CCC00742032005465737420330054657374201F
:108CDC003400546573742035004E4F50005055537A
:108CEC00484E494C0044555000504F50005245548A
:108CFC003000524554310041444400535542004D1C
:108D0C00554C00444956004D4F4400504F570055A8
:108D1C004E4D00414E44004E4F54004E45510047BD
:108D2C005400475445004C54004C544500474C4F9C
:108D3C004144004753544F5245005055534854003A
:108D4C005450555400544745540043414C4C430037
:108D5C0043414C4C530050555348460050555348D2
:108D6C00490050555348530050555348434E0050FA
:108D7C00555348434300505553484C004C4C4F41BD
:108D8C0044004C53544F5245004A554D50004A55DF
:108D9C004D505A004A554D504E5A0042425A564D6B
:108DAC005F4552524F525F4E4F4E450042425A560B
:108DBC004D5F4552524F525F494E535452004242FE
:108DCC005A564D5F4552524F525F535441434B00DC
:108DDC0042425A564D5F4552524F525F4C4E554D82
:108DEC000042425A564D5F4552524F525F5043001B
:108DFC0042425A564D5F4552524F525F464C495370
:108E0C00540042425A564D5F4552524F525F54598C
:108E1C0050450042425A564D5F4552524F525F4F99
:108E2C0055544F4652414E47450042425A564D5FAB
:108E3C004552524F525F4E4F54494D504C00424296
:108E4C005A564D5F4552524F525F52455400424262
:108E5C005A564D5F4552524F525F535452494E47EA
:108E6C000042425A564D5F4552524F525F53574142
:108E7C00524D0042425A564D5F4552524F525F5628
:108E8C00535449470042425A564D5F4552524F5235
:108E9C005F4D454D0042425A564D5F4552524F521E
:108EAC005F4D4154480042425A564D5F5354415411
:108EBC00455F4E4F434F44450042425A564D5F5317
:108ECC00544154455F52454144590042425A564D13
:108EDC005F53544154455F53544F505045440042E6
:108EEC00425A564D5F53544154455F444F4E4500D2
:108EFC0042425A564D5F53544154455F4552524F6E
:108F0C00520042425A564D5F53544154455F434FB1
:108F1C00554E5400D8900D00DC900D00E4900D00DF
:108F2C00EA900D00F1900D00F7900D00FF900D00F0
:108F3C002D2D2D2D2D2D2D2D2D2D2D2D2D2D2D0A78
:108F4C00002D204845415020535441545553202D59
:108F5C000A002D2D2D2D2D2D2D2D2D2D2D2D2D2D85
:108F6C002D0A0A004D6178206F626A65637420696E
:108F7C006E6465783A2025640A0056616C69642039
:108F8C006F626A656374733A2025640A0053697AC8
:108F9C006520706572206F626A6563743A20257A69
:108FAC00750A00092325643A205B25735D002A00AD
:108FBC00202566002025687500202558005B6E5D15
:108FCC00005B6C5D207B25643B25647D004D6178E6
:108FDC00207461626C65207365676D656E742069C1
:108FEC006E6465783A2025640A0056616C696420C9
:108FFC007461626C65207365676D656E74733A207D
:10900C0025640A0053697A65207065722074616268
:10901C006C65207365676D656E743A20257A750AE8
:10902C0000092325643A207B00202825642C256424
:10903C002900202F6E6578743D2825787C256429BD
:10904C00207D0A0048656170207573616765202872
:10905C0042293A20253034642F25303464202825C9
:10906C002E31662525290A004865617020757361CB
:10907C0067652028422920666F722031362D62697F
:10908C007420706F696E746572733A202530346485
:10909C000A00556E636C61696D6564207370616361
:1090AC0065202842293A20256420283D2564206F1C
:1090BC00626A656374287329206F7220256420739B
:1090CC0065676D656E74287329290A006E696C00DA
:1090DC00696E746567657200666C6F617400737499
:1090EC0072696E67007461626C6500636C6F737596
:1090FC007265007573657264617461000000000034
:10910C000000000011770D001B770D0025770D0076
:10911C002F770D0039770D0045770D0051770D0035
:10912C005D770D0065770D006F770D0079770D0079
:10913C000000000000000000B7780D00AD780D00B5
:10914C00A3780D0059780D0097780D008B780D00E1
:10915C007F780D0077780D006D780D0063780D0029
:10916C0079770D00000000000000000033790D003D
:10917C0029790D001F790D0015790D0009790D0065
:10918C00FD780D00F1780D00E9780D00DF780D0009
:10919C00D5780D0079770D0000000000000000006C
:1091AC00517A0D00A17A0D00AF7A0D00B17E0D0041
:1091BC00657A0D00877A0D00737A0D009B7A0D008D
:1091CC00537A0D00577A0D000000000000000000DB
:1091DC00637B0D00B37B0D00C17B0D00B17E0D00D8
:1091EC009F7B0D00657B0D007B7B0D00AD7B0D0027
:1091FC00917B0D005F7B0D00000000000000000063
:10920C00817C0D00717C0D00737C0D00252B30339F
:10921C00643A253032750025592D256D2D25645461
:10922C0025483A254D3A2553257A006173637469B4
:10923C006D6500626175640053657269616C005301
:10924C00657269616C31007479706500706172616E
:10925C006D00636D6400696400686E640073747201
:10926C006D0066696C74006C766C006164644861B6
:10927C006E646C65720072656D6F766548616E64C4
:10928C006C657200656E756D48616E646C657273A9
:10929C00004A534F4E53747265616D4C6F67486151
:1092AC006E646C6572006170700025303130752011
:1092BC00005D20002C200028293A2000205B006350
:1092CC006F6465203D200025690064657461696CDC
:1092DC0073203D20000D0A006C6E00666E00636FFB
:1092EC0064650064657461696C006E6F6E65007412
:1092FC007261636500696E666F007761726E0065FE
:10930C0072726F720070616E696300616C6C000048
:10931C000000000000000000BB800D00B1800D00BB
:10932C00A7800D009D800D0091800D0085800D00A3
:10933C0079800D0071800D0067800D005D800D003F
:10934C0079770D0000000000000000000000000014
:10935C000000000000000000000000000000000001
:10936C0000000000000000000000000000000000F1
:10937C0000000000000000000000000000000000E1
:10938C0000000000000000000000000000000000D1
:10939C0000000000000000000000000000000000C1
:1093AC0000000000E9400D00ED400D00FD410D00F6
:1093BC002B420D00C9550D00D5660D0045780D00EA
:1093CC00C1780D00017A0D00717E0D008D7E0D00AF
:1093DC00A17E0D00E17F0D0029800D00C5800D00E0
:1093EC00E9800D006D810D0031820D00F5820D00BC
:0493FC00000000006D
:049400000000000068
:10940400E58C0D00108C0D00E98C0D00F18C0D0025
:10941400F58C0D00F98C0D00FE8C0D00038D0D00F4
:10942400078D0D000B8D0D000F8D0D00138D0D009C
:10943400178D0D001B8D0D001F8D0D000B8F0D0062
:10944400238D0D00288D0D00278D0D002B8D0D0013
:109454002E8D0D00328D0D00358D0D00398D0D00D2
:109464003F8D0D00468D0D004C8D0D00518D0D006E
:10947400568D0D005C8D0D00628D0D00688D0D0004
:109484006E8D0D00748D0D007B8D0D00828D0D0091
:10949400888D0D008E8D0D00958D0D009A8D0D001B
:1094A400A08D0D001A8F0D00B28E0D00C58E0D001B
:1094B400D78E0D00EB8E0D00FC8E0D000E8F0D006F
:1094C400A78D0D00B88D0D00CA8D0D00DC8D0D002B
:1094D400ED8D0D00FC8D0D000E8E0D001F8E0D0008
:1094E400368E0D004A8E0D005A8E0D006D8E0D00C5
:1094F4007F8E0D00918E0D00A18E0D0001000000E5
:1095040037920D000000000050930D0070930D0081
:1095140090930D0000000000000000000000000017
:1095240000000000808D0D0000000000000000001D
:109534000000000000000000000000000000000027
:109544000000000000000000000000000000000017
:109554000000000000000000000000000000000007
:089564000000000014DD0320EB
:10956C00FFFFFFFF00000102030405060708090ABC
:10957C000B0C0D0E0F101112131415161718191AB7
:08958C001B1C1D1E1F202800FE
:0495940078563412BF
:04000003D000401CCD
:00000001FF
