:02000002D0002C
:1040000000400D00D45D0D00000006000C0005010D
:084010000401E70500000000B7
:04401800D4590D006A
:10401C0009480A49884208B505D0094A824202D0AB
:10402C00121A01F08DFC0748074A0021121A01F000
:10403C0092FC014808BD00BF24DD0320445D0D0047
:10404C008CDD03208CDD0320F0E7032070B501F03C
:10405C00AFF9074C074BE41AA40800251E46A542ED
:10406C0004D056F8253098470135F8E770BD00BFED
:10407C00385D0D00F85C0D0000F074BC08B500F064
:10408C009DFCBDE8084001F055B900F003BE00F0FE
:10409C0001BE0078B0FA80F040097047012303702C
:1040AC007047000070B500F051FB104B1A68B0F867
:1040BC00013016214B43C3F5856318320233134488
:1040CC0043F6FF759C8AC4F30E069E82C4F30D035F
:1040DC00AB4205D04B43C3F5856302331344F1E780
:1040EC00037823F00803037070BD00BFECE70320D6
:1040FC00F8B507460C46154600F028FB037803F08C
:10410C000703042B01D00020F8BD384600F01EFB3D
:10411C0003785906F7D5384600F018FB1B4B196885
:10412C00B0F8013016225343C3F5856318310233BE
:10413C000B44002743F6FF7C10460A26B4FBF6F628
:10414C001FFA87FE764502D87645DCD10DE09A8AB7
:10415C00C2F30D02624507F10107F5D000FB02F333
:10416C00C3F5856302330B44EAE70A21B4FBF1F291
:10417C0001FB1244A4B233F8142093B21204C2D53A
:10418C00C3F30E032B800120F8BD00BFECE7032026
:10419C0070B500F0DBFA154B1A68B0F80130162137
:1041AC004B43C3F58563183202331344002043F6A6
:1041BC00FF75002433F91460002E06DB9A8A6FEA2F
:1041CC0092326FEA82329A8270BD013401300A2C2D
:1041DC0080B2EFD19B8AC3F30D03AB4205D04B43A6
:1041EC00C3F5856302331344E3E770BDECE70320AA
:1041FC00044B1B68042283F8992583F89A051B68E5
:10420C00184700BFECE7032008B50D20FFF7F0FFBF
:10421C00024B1B68B3F8580408BD00BFECE7032041
:10422C0013B502A9044621F8020D032000F010FB7F
:10423C0010B9FFF7E9FF07E0BDF8060000F086FAB9
:10424C00A0F80140BDF8060002B010BD13B504463D
:10425C000DF10601052000F0FBFA10B9FFF7D4FFB1
:10426C0007E0BDF8060000F071FAC0F80140BDF897
:10427C00060002B010BD0000054B1A68B2F99D355E
:10428C00181A00F5347002EB4000B0F801007047CA
:10429C00ECE70320064B1A68B2F99D35591C02D184
:1042AC000220FFF7A5BF013BA2F89D35704700BF68
:1042BC00ECE70320084B1A68B2F99D3501339BB229
:1042CC005F2B02D90220FFF793BFA2F89D3502EBBA
:1042DC004303A3F8A1057047ECE7032038B50D465E
:1042EC00FFF7B4FF04462DB100F030FA037843F029
:1042FC00400303702046BDE83840FFF7DBBF08B52C
:10430C00FFF78EFFBDE80840FFF7D4BF70B5184D1E
:10431C002B68B3F99D3501339BB2012B01D80220D8
:10432C0021E00120FFF7A8FF04460020FFF7A4FFBF
:10433C000646204600F00AFA037803F00703032B25
:10434C0001D006200FE0FFF7A5FFFFF7A3FF2B68B6
:10435C0093F89925042A0AD032462146D88900F0D0
:10436C0091F820B90D20BDE87040FFF741BF70BD3A
:10437C00ECE7032010B50C46FFF7C1FF2046FFF712
:10438C0099FFFFF7C3FF044B1B6893F8990504389A
:10439C0018BF012010BD00BFECE7032038B505465F
:1043AC0008460021FFF79AFF0B4B1B6893F89935D1
:1043BC00042B4FF000000BD0FFF75EFF0446FFF715
:1043CC0069FF002D05DB2146A8B2FFF7D3FF00E003
:1043DC0038BD204638BD00BFECE7032038B5284C6B
:1043EC002568B5F99D3501339BB2022B01D802200B
:1043FC0035E0B5F99F25A5F89D2513B203F5347367
:10440C0005EB4303B3F8010000F0A0F9B0F901305B
:10441C00A5F89F35FFF73EFF2368988900F096F9C1
:10442C00037823F01003037023689889FFF73AFE92
:10443C0000202168FFF720FF8881FFF72BFF2368FE
:10444C00B3F99D350133D2D00020FFF715FF00F0F2
:10445C007DF9037803F00703012B04D00620BDE897
:10446C003840FFF7C5BE0020FFF706FF246800F0B8
:10447C006DF9B0F901306381BDE83840FFF70ABF30
:10448C00ECE703202DE9F04F89B0154683460291E5
:10449C0000F05CF9874EB0F80130346816221FB278
:1044AC0013FB02F34FF0FF38E31A03F24244C24607
:1044BC00CDF80480434603924FF0000934F81920DC
:1044CC0090B2120406D4002B17DA0FFA89F3019379
:1044DC003B4612E0C0F30E00059300F037F9049050
:1044EC00029800F033F9049A0146104600F0E4F803
:1044FC00059B10B90FFA89F8BA4609F10109B9F10F
:10450C00050FDBD1BAF1000F5DDAA78A43F6FF7114
:10451C00C7F30D028A4207D017463468039A07FB8B
:10452C00124404F24244C7E72846039300F00EF904
:10453C000278039B12F0070F43D0002B1BDB1622D3
:10454C0013FB02F3C3F585633268019902331A44F5
:10455C0002EB410202996FEA41416FEA514111832A
:10456C0032681344019A6FEA454503EB42036FEA44
:10457C0055455D8425E00DF11E0000F0F1F8002892
:10458C0000F09480A28ABDF81E3002F44041C3F3BF
:10459C000D020A43A2823268162101FB1323029AF0
:1045AC006FEA42426FEA5242A3F84224BDF81E2041
:1045BC0033686FEA454501FB12336FEA5545A3F8A2
:1045CC004C54012072E0284600F0C0F8027802F04A
:1045DC00070202F0FF00162308F104017AB11AFB5E
:1045EC0003FACAF5856A33680AF1020A9A440AEB9F
:1045FC0041016FEA45456FEA55454D83E1E71AFBEA
:10460C0003FACAF5856A33680AF1020A534403EBCC
:10461C00480888F8182088F8192033689A440AEB5F
:10462C0041018A76CA7634F91030002BC9DB01308F
:10463C000528F8D1584600F089F8B0F801309F42AF
:10464C000FD1A38A43F6FF72C3F30D039342B8D084
:10465C00584600F07BF8A38AC3F30D03A0F8013091
:10466C0020E0584600F072F8B0F801303568162298
:10467C005343C3F58563183502332B441046998A8E
:10468C00C1F30D02974206D000FB02F3C3F585631C
:10469C0002332B44F3E7A28A01F44041C2F30D022A
:1046AC00114399820023237563758AE709B0BDE82D
:1046BC00F08F00BFECE7032002780B7812F00702B2
:1046CC0005D113F0070318BF01235842704713F0AC
:1046DC00070333D0012A0BD1012B31D1B0F90120C2
:1046EC00B1F901309A422DDBCCBF0120002010E043
:1046FC00022A05D0022B03D0032A0CD1032B21D183
:10470C00B0F80120B1F801309A421BD38CBF0120C4
:10471C00002040B27047042A01D1042BEFE7062A8F
:10472C0010D1062B0ED1D0F80130D1F80100834204
:10473C0008D3834294BF00200120704701207047AA
:10474C00022BDCE74FF0FF3070470000034B1B6877
:10475C0000EB800018331844704700BFECE70320CF
:10476C002DE9F0432E490F687E6907F58B639B1B7F
:10477C001BB2162207F24245B3FBF2F300240FFAE8
:10478C0083FE6FF0150C22B2724525DAB5F9149040
:10479C000CFB04F2B9F1000F02F22A4204F10108F9
:1047AC00A5F1160516DB04800B68183313444FF083
:1047BC00FF321A755A750022114603EB420003F8BA
:1047CC0012100132052A41708172C172F5D101209B
:1047DC00BDE8F0834446D6E73C69A6F11602A24236
:1047EC001BD303800B685869A0F116025A614FF075
:1047FC00FF3300F8023C00F8013C0023194600EBA3
:10480C0043020133052B02F8161C02F8151C02F8A2
:10481C000C1C02F80B1CF2D1D9E70020BDE8F08388
:10482C00ECE7032008B500F0070343F00803042865
:10483C000B7006D1481CFFF793FF003018BF012006
:10484C0008BD052804BFFF238B70012008BD0000A4
:10485C002DE9F041204C27683D6907F1180ECEEB8D
:10486C0005021C23A44692B20526B2FBF6F6B3420F
:10487C0020D203EB83040EEB04081EF8042012F084
:10488C00080F05D10B80DCF80010183121441BE017
:10489C0003280CD102F00702032A08D10C88B8F8BF
:1048AC000120944203D10B800120BDE8F08101333B
:1048BC009BB2DCE76B1D7D69AB4209D80E80DCF83E
:1048CC00003019694A1D1A61BDE8F041FFF7AABF13
:1048DC000020BDE8F08100BFECE7032007B50A4BD0
:1048EC001B680DF1060201219889FFF701FCBDF848
:1048FC000600FFF72BFFB0F8010000F099FDFFF761
:10490C006DFD03B05DF804FBECE7032013B5114C0F
:10491C0023689889FFF73CFC022803D00320FFF79B
:10492C0067FC15E023680DF1060201219889FFF759
:10493C00DFFBBDF80600FFF709FFB0F8014000F0FF
:10494C0043FC2346044A012100F0DDFDFFF746FD40
:10495C0002B010BDECE70320E8590D000A46012116
:10496C0000F0D1BD08B500F02FFC0E49FFF7F6FFA3
:10497C0000F032F800F028FC0B49FFF7EFFF0B4971
:10498C000220FFF70BFD00F01FFC0949FFF7E6FFC3
:10499C0008490320FFF702FD00F016FC0649FFF75B
:1049AC00DDFF08BDF6590D00FC590D0019490D002D
:1049BC00125A0D00E9480D001E5A0D0008B500F002
:1049CC0003FC0249FFF7CAFF08BD00BF395A0D00AE
:1049DC0000F0C4B800F0C2B808B500F0F5FB4FF415
:1049EC00165100F0E5FB024B024A1A6008BD00BFED
:1049FC00ECE7032090DD032000F0B0B808B5024BC3
:104A0C001B681B68019308BD4C02030008B5024BE0
:104A1C001B685B68019308BD4C02030008B5024B90
:104A2C001B681B69019308BD4C02030008B5024BBF
:104A3C001B685B69019308BD4C02030008B5024B6F
:104A4C001B689B69019308BD4C02030008B5024B1F
:104A5C001B68DB69019308BD4C02030008B5024BCF
:104A6C001B681B6A019308BD4C02030008B5024B7E
:104A7C001B681B68019308BD3C02030008B5024B80
:104A8C001B68DB68019308BD3C02030008B5024BB0
:104A9C001B681B69019308BD3C02030008B5024B5F
:104AAC001B685B69019308BD3C02030008B5024B0F
:104ABC001B689B69019308BD3C02030008B5024BBF
:104ACC001B68DB69019308BD3C02030008B5024B6F
:104ADC001B689B6A019308BD3C02030008B5024B9E
:104AEC001B685B69019308BD6402030008B5024BA7
:104AFC001B689B68019308BD4802030008B5024B74
:104B0C001B681B69019308BD4802030008B5024BE2
:104B1C001B685B69019308BD4802030008B5024B92
:104B2C001B685B6C019308BD4802030008B5024B7F
:104B3C001B689B6C019308BD4802030008B5024B2F
:104B4C001B685B68019308BD1802030008B5024B93
:104B5C001B685B69019308BD1802030008B5024B82
:104B6C001B681B68019308BD2C02030008B5024B9F
:104B7C001B689B68019308BD6802030008B5024BD3
:104B8C001B68DB68019308BD6802030008B5024B83
:104B9C001B68DB6B019308BD4402030008B5024B94
:104BAC001B685B68019308BD4002030008B5024B0B
:104BBC001B689B68019308BD4002030008B5024BBB
:104BCC001B68DB68019308BD4002030008B5024B6B
:104BDC001B681B69019308BD4002030008B5024B1A
:104BEC001B685B69019308BD4002030008B5024BCA
:104BFC001B689B69019308BD4002030008B5024B7A
:104C0C001B68DB69019308BD4002030008B5024B29
:104C1C001B681B6A019308BD4002030008B5024BD8
:104C2C001B681B6B019308BD4002030008B5024BC7
:104C3C001B685B6B019308BD4002030008B5024B77
:104C4C001B685B68019308BD2002030008B5024B8A
:104C5C001B685B69019308BD2002030008B5034B78
:104C6C001B68D3F88830019308BD000020020300B4
:104C7C0008B5034B1B68D3F89430019308BD0000B2
:104C8C002002030008B5024B1B681B68019308BD8A
:104C9C001C02030008B5024B1B685B68019308BD3E
:104CAC001C02030008B5024B1B685B6A019308BD2C
:104CBC001C02030000231A464068FFF76FBF002256
:104CCC0002214068FFF77ABF002211464068FFF7C7
:104CDC006DBF002211464068FFF778BF00231A46CB
:104CEC0019464068FFF77ABF00231A4619464068F8
:104CFC00FFF77CBF002281F001014068FFF77EBF07
:104D0C0000224068FFF78ABF002211464068FFF777
:104D1C008DBF002211464068FFF778BF2DE9F043A4
:104D2C00002495B016460D46074600F0ADFA214614
:104D3C0020220CA8009400F00EFE40230C93214678
:104D4C006B460CAA3046FFF719FF0446002844D1E5
:104D5C00024601216868FFF739FF0221804622468E
:104D6C006868FFF733FF009E81462146002E34D041
:104D7C00002932D17368022B02D00A2B09D02AE009
:104D8C00B8F1000F27D071693846043100F0A9FA48
:104D9C0020E0B9F1000F1ED07469112201A800F0B7
:104DAC00DAFD06238DF8143001AD04F10803183434
:104DBC00186859682A4603C20833A3421546F7D12E
:104DCC0001A906A807AD00F06DFA0FCD3C1D0FC46C
:104DDC002B6823700121F669C8E70098FFF7C6FE1F
:104DEC00384615B0BDE8F083024B034A1A60002226
:104DFC005A607047F4E30320505A0D00002211460C
:104E0C004068FFF7E3BE002211464068FFF7FEBE84
:104E1C00002211464068FFF709BF00224068FFF7E7
:104E2C00FDBE002281F001014068FFF7E7BE0023C0
:104E3C001A4619464068FFF7D9BE00231A46194690
:104E4C004068FFF7CBBE002211464068FFF7AEBEAC
:104E5C00002202214068FFF7B1BE00231A464068C9
:104E6C00FFF79CBE024B04225A60024A1A6070473C
:104E7C00FCE30320845A0D00002211464068FFF722
:104E8C00C5BE002211464068FFF7D0BE0022406824
:104E9C00FFF7C4BE002281F001014068FFF7AEBEEF
:104EAC0000231A4601214068FFF7A0BE00231A46D2
:104EBC0019464068FFF792BE002211464068FFF782
:104ECC0085BE002211464068FFF770BE0022022109
:104EDC004068FFF773BE00231A464068FFF75EBEBA
:104EEC0038B5054688B104684CB1A3681BB10322E0
:104EFC002146204698471021204600F0C8FB284642
:104F0C001421BDE8384000F0C2BB38BD10B10368B5
:104F1C005B681847704710B503680446BBB1586806
:104F2C00FFF7E4FD78B923685A7C12B95868FFF78B
:104F3C00E5FD23685868FFF7E9FD2068002323602E
:104F4C0028B1FFF7CDFF206808B1FFF7C9FF204655
:104F5C0010BD38B50446D0F8C40108B1FFF797F876
:104F6C00D4F8C00108B1FFF7E1FDD4F8BC5135B15C
:104F7C002846FFF7D0FF0421284600F088FB206864
:104F8C0008B1FFF7C3FF204638BD000010B5044B35
:104F9C00044640F8083BFFF7DCFF204610BD00BF7D
:104FAC00B85A0D0038B50E4C0E4B23600025022369
:104FBC0004F5E4706360A560C4F8C451C4F8C8512A
:104FCC00FFF7ACFD084BC4F8CC5184F8D0512360EA
:104FDC002046064A0649BDE8384000F053BB00BFE6
:104FEC0004E40320505A0D00B85A0D008CDD032048
:104FFC00994F0D0070474174704708B5007CFFF75E
:10500C0065FD20EAE07008BD08B5007CFFF73EFDA9
:10501C0020EAE07008BD08B5007CFFF747FD30EAD8
:10502C00200028BF4FF0FF3008BD08B5007CFFF70B
:10503C0035FD30EA200028BF4FF0FF3008BD007C62
:10504C00FFF73CBD10B51421044600F020FB2046B0
:10505C0010BD70B5457C04460E4625B9007CFFF7A3
:10506C0035FD002805DD3146207CBDE87040FFF79A
:10507C0005BD284670BD000010B504460846114613
:10508C00002262604FF47A72A260054A226001220B
:10509C00207462741A46FFF7E9FC204610BD00BF6D
:1050AC00EC5A0D0038B50C4D296811F0010411D1E2
:1050BC002846FEF7EEFF68B1084A094B094821461D
:1050CC00FFF7DAFF2846FEF7E9FF074A07490548CC
:1050DC0000F0D8FA034838BD70E6032074E60320CC
:1050EC00ECE50320D8E503208CDD032001500D00F6
:1050FC0010B58368044613B1032201469847204635
:10510C0010BD41747047704708B50021007CFFF753
:10511C0095FC30EA200028BF4FF0FF3008BD08B5E1
:10512C000121007CFFF78AFC30EA200028BF4FF0F9
:10513C00FF3008BD08B5007CFFF778FC20EAE07072
:10514C0008BD08B5007CFFF769FC20EAE07008BDDB
:10515C00007CFFF783BC10B51421044600F097FACD
:10516C00204610BD38B50446007C0D46FFF75EFCAA
:10517C00002801DC607C28B12946207CFFF766FC06
:10518C0020EAE07038BD000010B5044600236360CF
:10519C004FF47A73A360054B2360012308462174F6
:1051AC0063741146FFF72AFC204610BD1C5B0D00F2
:1051BC000022007CFFF72ABC10B514220446002103
:1051CC0000F0C9FB204610BD30B50E4D87B001A8CC
:1051DC00FFF7F2FF296811F0010410D12846FEF701
:1051EC0058FF60B101AA21460748FFF7CDFF2846BA
:1051FC00FEF754FF054A0649034800F043FA0248FB
:10520C0007B030BDF8E60320FCE603208CDD03205C
:10521C0013510D00704710B51821044600F037FAF1
:10522C00204610BDF0B5037D062B8DB00E4600F167
:10523C0004074FF0000402D000F1080518E00CAD93
:10524C00394605F8304D2F232A460A20FFF746FC35
:10525C00284600F0B1FB33680246DB68294630462D
:10526C0098470FE024B12E21304600F01DF904447C
:10527C0015F8011D0A22304600F025F9BD42044400
:10528C00F0D120460DB0F0BD10B5054B04461122EF
:10529C0040F8043B002100F05EFB204610BD00BF2F
:1052AC004C5B0D000346074A10B543F8042B01F183
:1052BC00100251F8044B43F8044B9142F9D10A788F
:1052CC001A7010BD4C5B0D0010B59DF8084044EAF7
:1052DC00032343EA024242EA01610423416003755D
:1052EC0010BD37B50D788B784A78C978009129466E
:1052FC00FFF7EAFF03B030BD08B50C4B33B1FFF735
:10530C0063FF03681B699847002809DC084B63B1ED
:10531C00FFF7C8FE03681B699847002803DC08BD2B
:10532C00AFF30080F2E7AFF3008008BD000000008F
:10533C000000000008B5FFF7DFFFFFF707FC014B8B
:10534C00186008BD48E703200248034A0349121AB3
:10535C0000F0F6BA00F4032004F40320405D0D00C5
:10536C0007B5002300931A466FF07701FFF780FC16
:10537C0003B05DF804FB000007B543880A2B08D086
:10538C00502B09D1094B1B683BB103B05DF804EB02
:10539C001847FFF7E5FF06E0002300931A466FF06D
:1053AC007701FFF765FC03B05DF804FB10E7032001
:1053BC0038B5104C104D2368AB42104B0CBF01227A
:1053CC0000221A7002D0FFF7BFFF2560FFF7B6FB73
:1053DC00044600F0C9FA0A4B13B12046AFF3008023
:1053EC0000210748FFF7D2FB00210648BDE83840F2
:1053FC00FFF734BC00F403201E1C279A14E703208B
:10540C000000000085530D0010B50446FFF770FE38
:10541C00204610BD0348044A04490023836000F071
:10542C0031B900BF18E703208CDD032015540D00A3
:10543C000021FFF70BBC0000024B1A68024B1A60EC
:10544C00704700BF24DD032028E70320014B024AEC
:10545C001A6070472CE70320F45B0D00F8B5064684
:10546C000D468F180024BD420CD0336815F8011B73
:10547C009B6830469847002801DB0444F3E7002C76
:10548C0008BF04462046F8BD70B505460C460846D4
:10549C0049B100F091FA2B68024621462846DB6898
:1054AC00BDE87040184770BD03689B68184738B555
:1054BC000D210546FFF7F8FF0A2104462846FFF7A1
:1054CC00F3FF204438BD30B58BB00B4600218DF86E
:1054DC002410012A98BF0A220DF12304B3FBF2F524
:1054EC0005FB123303F0FF03092B94BF3033373322
:1054FC00DBB2214604F801392B46002DEED1FFF723
:10550C00C3FF0BB030BD0CB42DE9F04387B000AF36
:10551C0007F13804054654F8049B3C600E462346BC
:10552C004A461421381DFFF7BDFB132805D8391D39
:10553C002846FFF7A9FF044613E000F1080323F007
:10554C000703E846ADEB030D411C23464A4668466B
:10555C003C60FFF7A7FB69462846FFF795FF04461A
:10556C00C5461EB12846FFF7A2FF044420461C374F
:10557C00BD46BDE8F04302B0704710B50446006864
:10558C0008B1FFF7D3FA204610BD000010B5064C49
:10559C00002320462360FFF7C1FA2046034A044942
:1055AC00BDE8104000F06EB830E703208CDD03201E
:1055BC0087550D0010B50446006818B1FFF76AFB5B
:1055CC000023236010BD10B50446FFF7F3FF2046FF
:1055DC0010BD000010B5094C00204FF6FF73206081
:1055EC00A080A07120816381FFF728FB2046044A2C
:1055FC000449BDE8104000F045B800BF34E7032073
:10560C008CDD0320D3550D00002211464068FFF7B6
:10561C00FDBA002211464068FFF708BB0022406823
:10562C00FFF7FCBA002281F001014068FFF7E6BAEF
:10563C0000231A4619464068FFF7D8BA00231A46C9
:10564C0019464068FFF7CABA002211464068FFF7B6
:10565C00BDBA002211464068FFF7A8BA0022022109
:10566C004068FFF7ABBA00231A464068FFF796BABA
:10567C00024B03225A60024A1A60704740E703202B
:10568C00685C0D000B460146184600F04BB9FEF75E
:10569C00FCBC0000184B1A68D1075CBF01221A60D1
:1056AC00164B1A68D2075CBF01221A60144B1A6899
:1056BC00D0075CBF01221A60124B1A68D1075CBF7D
:1056CC0001221A60104B1A68D2075CBF01221A60C3
:1056DC000E4B1A68D0075CBF01221A600C4B1A687B
:1056EC00D1075CBF01221A600A4B1A68D2075CBF53
:1056FC0001221A60704700BF68E7032064E70320AB
:10570C0060E703205CE7032058E7032054E70320FD
:10571C0050E703204CE70320244B1A68D0075CBFEA
:10572C0001221A60224B1A68D1075CBF01221A6051
:10573C00204B1A68D2075CBF01221A601E4B1A68F4
:10574C00D0075CBF01221A601C4B1A68D1075CBFE2
:10575C0001221A601A4B1A68D2075CBF01221A6028
:10576C00184B1A68D0075CBF01221A60164B1A68D6
:10577C00D1075CBF01221A60144B1A68D2075CBFB8
:10578C0001221A60124B1A68D0075CBF01221A6002
:10579C00104B1A68D1075CBF01221A600E4B1A68B5
:1057AC00D2075CBF01221A60704700BF98E7032044
:1057BC0094E7032090E703208CE7032088E703207D
:1057CC0084E7032080E703207CE7032078E70320AD
:1057DC0074E7032070E703206CE70320244B1A685E
:1057EC00D0075CBF01221A60224B1A68D1075CBF3C
:1057FC0001221A60204B1A68D2075CBF01221A6082
:10580C001E4B1A68D0075CBF01221A601C4B1A6829
:10581C00D1075CBF01221A601A4B1A68D2075CBF11
:10582C0001221A60184B1A68D0075CBF01221A605B
:10583C00164B1A68D1075CBF01221A60144B1A6808
:10584C00D2075CBF01221A60124B1A68D0075CBFEA
:10585C0001221A60104B1A68D1075CBF01221A6032
:10586C000E4B1A68D2075CBF01221A60704700BF4A
:10587C00C8E70320C4E70320C0E70320BCE70320EC
:10588C00B8E70320B4E70320B0E70320ACE703201C
:10589C00A8E70320A4E70320A0E703209CE703204C
:1058AC00184B1A68D1075CBF01221A60164B1A6894
:1058BC00D2075CBF01221A60144B1A68D0075CBF78
:1058CC0001221A60124B1A68D1075CBF01221A60C0
:1058DC00104B1A68D2075CBF01221A600E4B1A6873
:1058EC00D0075CBF01221A600C4B1A68D1075CBF51
:1058FC0001221A600A4B1A68D2075CBF01221A6097
:10590C00704700BFE8E70320E4E70320E0E703204B
:10591C00DCE70320D8E70320D4E70320D0E70320FB
:10592C00CCE7032010B5054C13462CB10A460146B2
:10593C000220AFF3008010BD204610BD0000000017
:10594C0010B5431E0A44914204D011F8014B03F8E0
:10595C00014FF8E710BD02440346934202D003F80E
:10596C00011BFAE77047000038B5124B1C68A36B9B
:10597C000546D3B91820FFF785F943F20E33A0631F
:10598C0003804AF6CD33438041F2342383804EF2B8
:10599C006D63C3804DF6EC630381052343810B23B8
:1059AC00838101220023C0E90423A36B00221D6123
:1059BC005A6138BD88DD0320034613F8012B002AF9
:1059CC00FBD1181A013870471D400D0059400D00CD
:1059DC0085400D0089400D000000000044617420DA
:1059EC006E756D626572202564005374617274006B
:1059FC005265676973746572696E672066756E634C
:105A0C0074696F6E7300466972737420646F6E658F
:105A1C002000494E495420444F4E45004242564DB9
:105A2C002053544152544544203A44200044455696
:105A3C00494345204352415348454400000000006F
:105A4C0000000000C14C0D00CB4C0D00D54C0D00DE
:105A5C00DF4C0D00E94C0D00F54C0D00014D0D0017
:105A6C000D4D0D00154D0D001F4D0D00294D0D0058
:105A7C000000000000000000674E0D005D4E0D00A0
:105A8C00534E0D00094E0D00474E0D003B4E0D00C0
:105A9C002F4E0D00274E0D001D4E0D00134E0D0008
:105AAC00294D0D000000000000000000E34E0D0029
:105ABC00D94E0D00CF4E0D00C54E0D00B94E0D0048
:105ACC00AD4E0D00A14E0D00994E0D008F4E0D00E8
:105ADC00854E0D00294D0D00000000000000000057
:105AEC0001500D0051500D005F500D0069540D0018
:105AFC0015500D0037500D0023500D004B500D006C
:105B0C0003500D0007500D000000000000000000C5
:105B1C0013510D0063510D0071510D0069540D00AE
:105B2C004F510D0015510D002B510D005D510D0005
:105B3C0041510D000F510D0000000000000000004D
:105B4C0031520D0021520D0023520D005A00252B0D
:105B5C003033643A253032750025592D256D2D25AD
:105B6C00645425483A254D3A2553257A00617363D0
:105B7C0074696D6500626175640053657269616C6E
:105B8C000053657269616C310074797065007061E5
:105B9C0072616D00636D6400696400686E6400730B
:105BAC0074726D0066696C74006C766C0061646470
:105BBC0048616E646C65720072656D6F76654861E4
:105BCC006E646C657200656E756D48616E646C65B3
:105BDC007273004A534F4E53747265616D4C6F670C
:105BEC0048616E646C6572006170700025303130F4
:105BFC007520005D20002C200028293A2000205B15
:105C0C0000636F6465203D20002569006465746144
:105C1C00696C73203D20000D0A0066006C6E0066F6
:105C2C006E00636F64650064657461696C006E6F0F
:105C3C006E6500747261636500696E666F007761F2
:105C4C00726E006572726F720070616E69630061D2
:105C5C006C6C0000000000000000000073560D008A
:105C6C0069560D005F560D0055560D0049560D0036
:105C7C003D560D0031560D0029560D001F560D00D6
:105C8C0015560D00294D0D0000000000000000000D
:105C9C0000000000000000000000000000000000F8
:105CAC0000000000000000000000000000000000E8
:105CBC0000000000000000000000000000000000D8
:105CCC0000000000000000000000000000000000C8
:105CDC0000000000000000000000000000000000B8
:105CEC00000000000000000043000000DD490D0032
:105CFC00E1490D00054A0D00F54D0D00714E0D00EA
:105D0C00B14F0D0021540D0045540D0059540D0098
:105D1C0099550D00E1550D007D560D00A1560D0055
:105D2C0025570D00E9570D00AD580D00000000007F
:045D3C000000000063
:045D4000000000005F
:105D4400795B0D0000000000945C0D00B45C0D0054
:105D5400D45C0D0000000000000000000000000002
:105D640000000000F45C0D000000000000000000D2
:105D7400000000000000000000000000000000001F
:105D8400000000000000000000000000000000000F
:105D940000000000000000000000000000000000FF
:085DA4000000000028DD0320CF
:105DAC00FFFFFFFF00000102030405060708090AB4
:105DBC000B0C0D0E0F101112131415161718191AAF
:085DCC001B1C1D1E1F202800F6
:045DD40078563412B7
:04000003D000401CCD
:00000001FF
